:020000040800F2
:1000000000200020D5010008DD010008E101000802
:1000100000000000000000000000000000000000E0
:1000200000000000000000000000000015020008B1
:100030000000000000000000190200081D02000876
:1000400025020008250200082502000825020008F4
:1000500025020008250200082502000825020008E4
:1000600025020008250200082502000825020008D4
:1000700025020008250200082502000825020008C4
:1000800025020008250200080000000025020008E3
:1000900025020008250200082502000825020008A4
:1000A0002502000825020008250200082502000894
:1000B00025020008000000002502000830B583B0CA
:1000C00000F09CFD314B324A1360324A1360324BD0
:1000D000324A03E0116819600433043230498B421C
:1000E000F8D32B4B1A682F4B9A4204D1294B1A682C
:1000F0002D4B9A4200D0FEE7244B2C4A13602C4A29
:1001000013602C4B02E000221A6004332A4A934207
:10011000F9D3264B1B68002B03D1254B1B68002B02
:1001200000D0FEE700F0C6FD694601A800F0CCFC57
:10013000224C234B1C1BA410002504E0AA001F4BDB
:10014000D35898470135AC42F8DC1E4C1E4B1C1BA3
:10015000A410002504E0AA001A4BD3589847013593
:10016000AC42F8DC0099019800F02CFF0500174C18
:10017000174B1C1BA41004E0013CA200134BD358E6
:100180009847002CF8DC280000F07AFCBABADECAE6
:100190000000002008060020000000209056000803
:1001A0000C06002078563412325476980C06002043
:1001B000140700200C060020180700205002000839
:1001C00050020008500200085002000850020008C7
:1001D0005002000810B5FFF771FFC04600BEFEE7F1
:1001E00004207146084202D0EFF3098001E0EFF3EA
:1001F000088071460A4A104770B504000D00044893
:1002000000F0A2FC2900200000F0B4FC00BEFEE7D4
:10021000A452000800BEFEE700BEFEE770470000E3
:08022000F901000800BEFEE731
:1002280090560008000000200C0600209056000898
:1002380000000000000000000C0600201807002045
:080248000000000000000000AE
:1002500010B504000E4B1978FA20800000F0E6FE7D
:1002600001000C4B186800F0E1FE00F06BF800286C
:100270000AD1032C0AD800222100013800F024F80A
:10028000054B1C60002002E0012000E0012010BDB1
:1002900008000020140000200400002010B5064AC9
:1002A000116810230B4313600320FFF7D1FF00F008
:1002B000BBFE002010BDC04600200240014B186864
:1002C0007047C046A806002070B505000C00032941
:1002D00003D98B21184800F0F5FC002D12DBAA0889
:1002E0001648C0329200115803231D40ED00FF262E
:1002F0003300AB409943A30134001C40AC400C4395
:10030000145017E0EDB20F222A40083A9208063244
:1003100092000B4B9C466244516803231D40ED0044
:10032000FF200300AB409943A30118400400AC40F8
:100330000C43546070BDC0469051000800E100E0DD
:1003400000ED00E001380A4B98420FD8094A50608E
:1003500009490B6A1B021B0AC020000603430B62FB
:100360000023936007331360002000E001207047F2
:10037000FFFFFF0010E000E000ED00E010B504001A
:10038000042806D0002804D02621FF31084800F0B8
:1003900099FC042C05D1074A116804230B43136010
:1003A00004E0044A136804218B43136010BDC04667
:1003B0009051000810E000E0014B18687047C046FB
:1003C00014000020F8B505000F0016001C0039E0ED
:1003D000631C37D0FFF772FF069BC01A844201D915
:1003E000002C2FD12A685368E0218B43536082236D
:1003F0005B006A689A420DD1AB6880221202934278
:1004000003D08022D200934204D12A68136840218D
:100410008B43136080239B01AA6A9A420AD12A68FF
:1004200011680E4B0B4013602A6813688021890104
:100430000B43136001225D23EA540022013BEA547E
:10044000032009E02B689B683A009A431300594245
:100450005941B142BCD10020F8BDC046FFDFFFFFCB
:10046000F8B507000C0015001E0040E0C023DB00BB
:100470009C4202D1002D00D1137B731C37D0FFF7B3
:100480001DFF069BC01A864201D9002E2FD13A6863
:100490005368E0218B43536082235B007A689A4261
:1004A0000DD1BB6880221202934203D08022D20079
:1004B000934204D13A68136840218B431360802330
:1004C0009B01BA6A9A420AD13A6811680B4B0B40F9
:1004D00013603A681368802189010B43136001227D
:1004E0005D23FA540022013BFA54032005E03A68E8
:1004F00093682340AB42B9D10020F8BDFFDFFFFF76
:1005000070B582B004000D00160000920B000022AE
:10051000C0214901FFF7A4FF002805D0226E202347
:100520001343236603201DE000962B000022802148
:100530002000FFF747FF002805D0226E2023134339
:10054000236603200EE000962B000022C021C90084
:100550002000FFF785FF002804D0226E20231343DC
:100560002366032002B070BD7047C04670B5041EFC
:1005700000D14DE10368A74A934207D0A64A9342AF
:1005800004D0A8214900A54800F09CFB6368002B1B
:1005900008D082225200934204D05221FF319F485A
:1005A00000F090FBA368002B0CD08022D200934275
:1005B00008D080221202934204D0A9214900974812
:1005C00000F080FBE368F0221201934234D0013A3C
:1005D000FF3A934230D0013AFF3A93422CD0013A8D
:1005E000FF3A934228D0013AFF3A934224D0013A8D
:1005F000FF3A934220D0013AFF3A93421CD0013A8D
:10060000FF3A934218D0013AFF3A934214D0013A8C
:10061000FF3A934210D0013AFF3A93420CD0013A8C
:10062000FF3A934208D0013AFF3A934204D0542152
:10063000FF317A4800F046FBA36980229200934282
:100640000AD0002B08D08022D202934204D0AA21E3
:100650004900724800F036FB636B082B06D0002B74
:1006600004D05621FF316D4800F02CFBE369002BCC
:1006700012D0082B10D0102B0ED0182B0CD0202B02
:100680000AD0282B08D0302B06D0382B04D0AB2131
:100690004900624800F016FB236A002B06D0802B2D
:1006A00004D05821FF315D4800F00CFB636A002B39
:1006B00006D0102B04D0AC214900584800F002FBB2
:1006C000636A002B11D12369002B06D0022B04D0C2
:1006D0005C21FF31514800F0F5FA6369012B04D920
:1006E000AE2149004D4800F0EDFAA36A002B08D076
:1006F00080229201934204D06021FF31474800F0EC
:10070000E1FA80239B01A26A9A4213D1E36A591E3F
:10071000434A914201D8DB0704D4B12149003F4844
:1007200000F0D0FA236B022B04D96421FF313B483F
:1007300000F0C8FA5D23E35C002B05D100225C3396
:10074000E2542000FFF710FF02225D23E2542268EA
:10075000136840218B431360E268E023DB009A4278
:1007600001D9002001E080204001F0231B019A42C2
:1007700005D0E023DB009A4201D00023A362236B63
:10078000002B08D1E023DB009A4202D90223236325
:1007900001E00123236323686268A1680A43216999
:1007A0000A4361690A4380218900A56929400A43F7
:1007B000E1690A43216A0A43A16A0A431A60236B6A
:1007C000022B05D122681368802109010B431360B5
:1007D0002168628B04231340626A1343626B1343E4
:1007E000E268134303434B6080239B01A26A9A4251
:1007F00002D12368E26A1A612268D169094B0B4071
:10080000D3610023236601225D33E254002000E01F
:10081000012070BD0030014000380040C451000884
:10082000FEFF0000FFF7FFFFF0B585B004000F00EA
:1008300016001D00E023DB00C2689A4201D8012E99
:1008400006D9FB0704D5CB2189008B4800F03AFA82
:10085000A368002B08D080221202934204D0CC213E
:100860008900854800F02EFA5C23E35C012B00D15F
:10087000FEE001225C23E254FFF720FD01905D239E
:10088000E35C012B00D0DDE0002F00D1DCE0002E86
:1008900000D1DBE003225C33E25400232366A7632C
:1008A000A687E68723644132A3520232A35223650E
:1008B000E36480231B02A2689A4205D12268136870
:1008C0008021C9010B43136080239B01A26A9A42D5
:1008D0000AD122681168694B0B40136022681368C3
:1008E000802189010B43136023681A68520603D4E0
:1008F000196840220A431A60E023DB00E2689A424A
:1009000030D96368002B01D0012E26D12368A26B59
:100910001288DA60A36B0233A363E38F013B9BB2BF
:10092000E3871AE023689A6892070AD5A26B1288B7
:10093000DA60A36B0233A363E38F013B9BB2E387CF
:100940000BE0FFF7BBFC019BC01AA84202D36B1C53
:1009500000D07DE0002D00D17CE0E38F9BB2002B26
:10096000E0D14CE06368002B01D0012E43D1E38F2E
:100970009BB2012B0BD92368A26B1288DA60A36BA0
:100980000233A363E38F023B9BB2E38733E0A36BA5
:100990001B7822681373A36B0133A363E38F013BBE
:1009A0009BB2E38727E0226893689B0719D5E38F02
:1009B0009BB2012B0AD9A36B1B88D360A36B0233B4
:1009C000A363E38F023B9BB2E38714E0A36B1B7826
:1009D0001373A36B0133A363E38F013B9BB2E387E4
:1009E00009E0FFF76BFC019BC01A854201D86B1C24
:1009F00032D1002D32D0E38F9BB2002BD3D1802394
:100A00009B01A26A9A4205D122681368802149019C
:100A10000B431360019A29002000FFF771FD0028A5
:100A200001D020232366A368002B06D103932368FB
:100A3000DA6803929B680393039B236E002B0FD10C
:100A400000200EE002200CE001200AE0012008E076
:100A5000032006E0032004E0032002E0032000E07E
:100A6000012001225D23E2540022013BE25400E018
:100A7000022005B0F0BDC046C4510008FFDFFFFFF3
:100A8000FEE7C04610B503000C4A1268002A02D1E6
:100A90000B490A4A1160094A106803330322934341
:100AA000C318084A934206D900F04CFB0C2303609C
:100AB0000120404201E0014A136010BD10060020F1
:100AC00018070020001C002001230360014B0B606D
:100AD0007047C0460C000020F0B54F464646C0B4F3
:100AE00087B0040001914356002B1FD10426301C0F
:100AF000211CABBE041C1CE03E00102F00D91026A8
:100B0000002305E00022A25602A9CA540133013491
:100B1000B342F7D302AA914600224946CA5404259B
:100B2000281C4946ABBE8046BF1B00E0019F002F3A
:100B3000E2D1019807B00CBC90469946F0BDC04682
:100B400010B5FFF7C9FF10BD0FB400B583B004ABFB
:100B500004CB01938021064800F0DEFF002803DD6E
:100B600001000348FFF7ECFF03B008BC04B01847CE
:100B70001806002070B504000D001548FFF7E4FFCB
:100B800021681448FFF7E0FF61681348FFF7DCFFB6
:100B9000A1681248FFF7D8FFE1681148FFF7D4FFBA
:100BA00021691048FFF7D0FF61690F48FFF7CCFFBC
:100BB000A1690E48FFF7C8FFE1690D48FFF7C4FFC0
:100BC0000C48FFF7C1FF29000B48FFF7BDFF70BDC0
:100BD000F45100080452000814520008245200087E
:100BE000345200084452000854520008645200086D
:100BF00074520008845200088C52000810B500F0AE
:100C000001F810BD7047C04610B51E4B5B680C2242
:100C10001340042B07D0082B09D0002B22D11A4AED
:100C20001A4B1A6021E0184A184B1A601DE0154B48
:100C30005C685A68802040020240A40C0F210C40DE
:100C40000234DB6A19400131824206D10E4800F0BD
:100C5000EDF944430D4B1C6007E00D4844430B4B3A
:100C60001C6002E0084A094B1A60064B5B681B09CE
:100C70000F221340074AD35C044A1168D94011601F
:100C800010BDC0460010024000127A00140000207F
:100C900000093D00B452000810B5FFF78DFBFA21A2
:100CA000890000F0C3F9FFF74DFB0420FFF766FB56
:100CB00010BDC04610B5FFF7F1FAFFF7EDFFFFF7E3
:100CC000A3FF10BD10B50A0001000248FFF73CFF6A
:100CD000FEE7C046C452000810B5104A1168104B18
:100CE0000B4013600D4B1B689B01FBD40B4BA022E8
:100CF00092035A601A68802149040A431A60074B1C
:100D00001B689B01FBD505494B6803229343013ABD
:100D100013434B60FFF778FF10BDC0460010024040
:100D2000FFFFFFFE00B583B06B46D871084B9B6890
:100D30009B07FBD501235B42012269460731054829
:100D4000FFF772FD024B9B689B07FBD503B000BD0C
:100D500000300140B006002070B5064C4025A5616A
:100D600080231B04A3618023DB03A361FFF7DAFF69
:100D7000A56170BD0004004870B5064C4025A56112
:100D80008023A3618023DB03A361FFF7CBFFA56171
:100D900070BDC0460004004870B586B02F4B1B687C
:100DA0002F4A112101A800F053FEB220FFF7D4FF13
:100DB0000320FFF7D1FF0020FFF7CEFF00260BE056
:100DC000EB00284AD318185DFFF7D6FF013400E086
:100DD0000024072CF4DD0136102E03D801AB9D5DF5
:100DE000002DF5D1204B1B68204A112101A800F0ED
:100DF0002FFEB320FFF7B0FF0320FFF7ADFF002069
:100E0000FFF7AAFF002610E00D0032001848FFF798
:100E10009BFE002406E0EB00124AD318185DFFF792
:100E2000ABFF0134072CF6DD0136102E03D801ABE1
:100E3000995D0029E8D10F4B00225A621A690121FD
:100E40008A431A610B4B1B69DB07FBD5094A1369FF
:100E500001218B43136106B070BDC0469C06002083
:100E6000F4520008180000209806002000530008E3
:100E70000C53000800040040074AD16902230B43C9
:100E8000D361064B064A9A626322DA621968623AB3
:100E90000A431A607047C046001002400004004038
:100EA0007FBB0000084B00225A621A6901218A4365
:100EB0001A61054B1B69DB07FBD5034A1369012146
:100EC0008B4313617047C0460004004070B5374C37
:100ED0002368C0218B4323602268354B1A4022606F
:100EE000E2688A43E260E2681340E360314B5A698A
:100EF0008021C9020A435A612268882109010A43F4
:100F00002260226A22622268A021C9010A4322606B
:100F10009A69802149010A439A61274D274B2B602A
:100F200080231B02AB6082235B006B60E023DB004D
:100F3000EB6000232B616B6180229200AA61C93AA9
:100F4000FF3AEA612B620733EB622800FFF70EFBE2
:100F50002A68116840230B4313601025A562FFF730
:100F6000A1FFA561FFF79EFF002404E0144B185D6C
:100F7000FFF7F2FE01341C2CF8D9002513E02800FD
:100F80005038C0B2FFF7E8FE0020FFF7E5FE102062
:100F9000FFF7E2FE002403E00020FFF7EDFE01343E
:100FA0007F2CF9D90135072DE9D970BD000400481F
:100FB000FFFCFFFF00100240B0060020003001409F
:100FC0001804002070B5FFF787FE1048FFF7BCFD3E
:100FD000FFF752FF0E48FFF7B7FDFFF777FF0D4809
:100FE000FFF7B2FD0C4D29680C48FFF7ADFD0C4C26
:100FF00021680C48FFF7A8FD64232B60FA239B00AF
:101000002360FFF7C9FEFFF74DFFEBE734530008FD
:101010005453000870530008980600208C530008B1
:101020009C060020A05300087047C04600224308D9
:101030008B4274D303098B425FD3030A8B4244D3A0
:10104000030B8B4228D3030C8B420DD3FF220902E2
:1010500012BA030C8B4202D31212090265D0030BA1
:101060008B4219D300E0090AC30B8B4201D3CB0397
:10107000C01A5241830B8B4201D38B03C01A5241D9
:10108000430B8B4201D34B03C01A5241030B8B42DB
:1010900001D30B03C01A5241C30A8B4201D3CB02C6
:1010A000C01A5241830A8B4201D38B02C01A5241AB
:1010B000430A8B4201D34B02C01A5241030A8B42AE
:1010C00001D30B02C01A5241CDD2C3098B4201D3C6
:1010D000CB01C01A524183098B4201D38B01C01A44
:1010E000524143098B4201D34B01C01A52410309BB
:1010F0008B4201D30B01C01A5241C3088B4201D36A
:10110000CB00C01A524183088B4201D38B00C01A16
:10111000524143088B4201D34B00C01A5241411A3D
:1011200000D20146524110467047FFE701B500204A
:1011300000F006F802BDC0460029F7D076E77047F8
:101140007047C046014B18687047C046980400209D
:10115000002310B59A4203D0CC5CC4540133F9E7A4
:1011600010BDF0B58BB014001D1E129906DA802454
:1011700024061B191D0014002D2300E000230B7012
:101180002023149E03229E43462E07D03300453B66
:1011900059424B411099013ACB18109309AB049373
:1011A00008AB0393139B00920293109B22000193C0
:1011B0002B0000F043FD0700472E02D1119BDB07F7
:1011C0002DD5109BFB180793462E14D13B78302B5E
:1011D0000CD1002200232000290002F09FF90028F2
:1011E00004D10123109A9B1A139A1360139B079A38
:1011F0001B68D3180793002200232000290002F067
:101200008DF93022002802D0079B099307E0099B43
:101210000799994203D9591C09911A70F7E73800C8
:10122000099B159ADB1B13600BB0F0BDF7B52B23A0
:1012300007000C000270861C002901DA2D234C42A5
:101240007B70092C1CDD6B46DD1D20000A2102F09D
:1012500051F9013D3031297020000A2102F064F873
:1012600004000928F1DC013D30342C706B46073353
:101270003000AB4209D92B78013533700136F5E7E0
:101280003023E4183370B01C7470C01BFEBD000026
:10129000F0B595B00C000A920B931A9D099001F0DD
:1012A00093FA036818000D9300F004FC00231293D6
:1012B00023680E900C930C99277E2B680722C90592
:1012C00001D59B1800E0073393431A0008322A60C7
:1012D0001A685B68A264E3640122E56CA66C6B008B
:1012E0005B080F935242C04B30000F9903F062FE2F
:1012F000002819D10122BC4B524230000F9902F054
:101300001DF9002810D1002200233000290002F02E
:101310000BF9002803D023002D2243331A70B34D5C
:10132000472F0ED8B24D0CE032002B0030002900C0
:1013300003F040FE002800D19AE1AE4D472F00D8BF
:10134000AD4D03230C9A236101339A43226000269A
:1013500042E0672F00D193E1472F00D190E10C9A32
:101360000021134312AA059211AA0392232223609B
:101370000691019308A96368521802920093320003
:101380002B0004970998FFF7ECFE20233A00050094
:101390009A43472A00D18EE11199652F00D996E131
:1013A000200001393A0050301191FFF73FFF129AA7
:1013B000060083182361012A00DD85E12268D20737
:1013C00000D581E1232308AA9B181B78002B03D0AA
:1013D00023002D2243331A700B9B13AA0093210084
:1013E0000A9B099800F0A4F9431C02D10120404255
:1013F0009BE12268530501D4236964E0652F00D87E
:10140000CCE0A06CE16C0022002302F087F80028F9
:101410002CD00123794A0A9909980B9DA847431CAF
:10142000E4D0119B129A934208DB2368DB0705D4B2
:10143000236800259B0700D50FE113E10B9D0E9B50
:101440000D9A0A990998A8470025431CCED0129BF3
:10145000013B9D42ECDA220001231A320A990998D5
:101460000B9EB047431CC1D00135F0E7119B002B08
:101470002BDC0123614A0A9909980B9EB047431C53
:10148000B4D0119B002B05D1129B002B02D12368F5
:10149000DB07CDD50B9E0E9B0D9A0A990998B04794
:1014A0000026431CA2D0119B5B429E420ADA220016
:1014B00001231A320A9909980B9FB847431C95D00B
:1014C0000136F0E7129B2A00ACE0A36D129E9E420B
:1014D00000DD1E00002E05DC00230C93F343DB1718
:1014E0000F9315E033002A000A9909980B9FB8471B
:1014F000431CF1D17AE7220001231A320A99099894
:101500000B9FB847431C00D170E70C9B01330C9331
:101510000F9BA26D0C993340D31A9942EBDBAE18A6
:10152000119B129A93420DDB2368DB070AD4129BAE
:10153000119AED18AD1B9B1A9D4200DD1D00002D78
:1015400009DC11E00E9B0D9A0A9909980B9FB84788
:10155000431CECD14AE72B0032000A9909980B9EF4
:10156000B047431C00D141E7EF43FB1700260C9323
:101570000AE0220001231A320A9909980B9FB84702
:10158000431C00D132E70136119A129B0C999B1A29
:101590002A000A409B1A9E42EBDB49E7129B012B73
:1015A00002DC01231A4245D001232A000A99099836
:1015B0000B9FB847431C00D118E70E9B0D9A0A9960
:1015C00009980B9FB847431C00D10FE7A06CE16C52
:1015D0000022002301F0A2FF002801D000251AE01C
:1015E000129B6A1C013B26E0FFFFEF7FB853000807
:1015F000B4530008C0530008BC530008C45300088B
:10160000220001231A320A9909980B9FB847431CFC
:1016100000D1EBE60135129B013B9D42F0DB22003D
:10162000330050320A9909980B9DA847431C00D0FB
:10163000FEE6DBE62A000A9909980B9DA847431CA1
:10164000EDD1D3E62200012319320A9909980B9EA5
:10165000B047431C00D1C9E60135E368139A9B1AD1
:101660009D42EFDB139BE06898425EDA18005CE075
:1016700080236268DB00511C00D06AE6073202E07A
:10168000002A02D10122626069E60C9908A80B4386
:101690000021069112A9059111A90391232109188E
:1016A0002360019300922B00049702913200099865
:1016B000FFF757FD0500119BDA1C02DB62689342BD
:1016C0001CDD023FFFB267E6013323617AE6662F35
:1016D00015D16368002909DD2161002B02D1226840
:1016E000D2071ED50133591821611AE0002B03D10E
:1016F00001222168114213D09A1C11E06727119B27
:10170000129A934206DB22682361D20709D501337E
:10171000236106E00121002B01DC4918C91A8A184F
:101720002261119B0026A3654CE615B0F0BDC046B2
:10173000F7B5170001938A680B6900900C0093427B
:1017400000DA130022003B6043321278002A01D0F5
:1017500001333B6023689B0602D53B6802333B6044
:10176000062523681D401ED0230043331B785A1ED4
:101770009341226892061CD53020E118433108704D
:1017800021005A1C45310978A218433202331170E6
:101790000FE022000123193201990098089EB047FA
:1017A000431C0ED00135E3683A689B1A9D42F0DB7A
:1017B000DAE72200019943320098089DA847431CAC
:1017C00002D10120404220E006232068E1683A6807
:1017D00003400025042B03D18D1AEB43DB171D407A
:1017E000A3682269934201DD9B1AED180027BD42D0
:1017F0000AD0220001231A3201990098089EB047AE
:10180000431CDED00137F2E70020FEBDF0B58BB0FF
:1018100006920A0043320793059004920A7E0C0058
:10182000109B6E2A00D1ABE011D8632A22D009D8D0
:10183000002A00D1B5E0582A00D0C5E045310A7031
:10184000814A4FE0642A1DD0692A1BD0BCE0732A6C
:1018500000D1AAE009D86F2A29D0702A00D0B3E0BD
:10186000202209680A43226037E0752A1FD0782AAF
:1018700033D0A9E00E001A684236111D19601368B2
:101880003370A4E021681A68080606D4490604D516
:10189000111D19600023D55E02E0111D1960156845
:1018A000002D3BDA2D23049A6D42137036E0216837
:1018B0001A68080606D4490604D51568111D196072
:1018C000ADB202E0111D196015685F4B227E0393D3
:1018D00008276F2A1DD00A271BE0220078214532F5
:1018E00011705A4A19680392081D226818600D6821
:1018F000100602D4500600D5ADB2D30702D520237E
:101900001A4322601027002D03D1202322689A4316
:1019100022602300002243331A7002E00A274A4B58
:1019200003936368A360002B09DB042221689143C1
:101930002160002D05D1049E002B11D07BE0002DED
:1019400079D0049E28003900FFF7F6FB039B013E87
:101950005B5C280033703900FFF768FB051EF1D18E
:10196000082F09D12368DB0706D5636822699342F3
:1019700002DC3023013E3370049B9B1B23612BE070
:1019800009681A68080607D4490605D5111D1960AB
:101990001368A28A1A8004E0111D19601368626935
:1019A0001A600023049E236116E01A68111D196055
:1019B000166800216268300000F01CFF002801D08A
:1019C000801B6060636803E02600423632700123AA
:1019D00023610023049A1370079B09AA0093210036
:1019E000069B0598FFF7A4FE431C02D1012040424C
:1019F00027E02369320006990598079DA847431CF4
:101A0000F4D0236800259B070FD4099BE068984217
:101A100017DA180015E022000123193206990598FB
:101A2000079EB047431CE1D00135E368099A9B1A31
:101A30009D42F0DBE9E72600039B42361B783370BA
:101A40008EE70BB0F0BDC046C6530008D753000860
:101A50000CB430B5164B9DB00C1E1D6804DA8B23F8
:101A600001202B6040421DE0822302A99B008B8154
:101A70000023029008619C4200D0631E8B604B6182
:101A800001235B42CB81209A21AB2800019301F016
:101A9000C3FA431C01DA8B232B60002C02D00023F5
:101AA000029A13701DB030BC08BC02B01847C04683
:101AB000980400200023C25C0133002AFBD1581E89
:101AC000704730B514009BB005001A00002C04DAF2
:101AD0008B230360012040421CE0822368469B0068
:101AE00083810023009104919C4200D0631E0293E5
:101AF0000593012369465B42CB8128001E9B01F0C0
:101B00008BFA431C01DA8B232B60002C02D00023BC
:101B1000009A13701BB030BD07B5009313000A0084
:101B2000010002480068FFF7CCFF0EBD98040020BA
:101B3000F0B503690C6989B00700059100269C4245
:101B400079DC0B00013C1433A50003935B1904936B
:101B50000300143302935D19049B28681B68591C09
:101B60000193FFF763FA0190B04233D0039B0298D0
:101B70009C460696634604CB9C46019B91B2594312
:101B8000120C5A4389190B0CD3180793069A1E0C92
:101B9000038889B29B1802685B1A110C6A46928B03
:101BA0008A1A1914521811149BB21204134308C054
:101BB000049B06916345DDD22B68002B0AD1029B62
:101BC000043DAB4201D33C6104E02B68002BFAD109
:101BD000013CF4E70599380001F028F8002829DBDA
:101BE0000020019B02990133039A019340CA0B889C
:101BF0001818B3B2C31A0868360C000C801B1D14E9
:101C0000451928149BB22D042B4308C1049B934211
:101C1000ECD2029AA300D3181A68002A0AD1029AB9
:101C2000043B9A4201D33C6104E01A68002AFAD1CD
:101C3000013CF4E7019E300009B0F0BDF0B516009C
:101C40001F00446A9DB00490259D06960797002CBE
:101C500008D1102000F0C4FD049B586244608460E9
:101C60000460C460049B5B6A196800290BD05A6841
:101C7000012393404A608B60049800F0FEFD00222F
:101C8000049B5B6A1A60079B002B05DA01232B601B
:101C90007B005B08079301E000232B60079CC84B87
:101CA000220019931A409A4219D1C64B249A136004
:101CB000069AC54B002A02D1240300D1C34B269AB1
:101CC0001800002A01D100F07DFDD978DA1C002926
:101CD00000D00532269918000A6000F073FD069EB8
:101CE000079F002200233000390001F017FC051E79
:101CF0000ED00123249A1360B54B269A1800002AAF
:101D000001D100F05FFDB34A26990A6000F05AFD48
:101D10001AAB01931BAB009332003B00049801F017
:101D20000BF8630005905B0D09D03A03AA4C120B27
:101D30001443AA4A300021009E1817951AE01A9BF6
:101D40001B9A9E18A64BF318202B08DDA54A06986F
:101D5000B218D0404022D31A9C40204303E02022F6
:101D60000698D31A984003F0BDF901239E4C013E1A
:101D70000919179300229D4B02F0C8FD9C4A9D4B08
:101D800002F04AFB9C4A9D4B01F0F6FB0400300038
:101D90000D0003F065F99A4A9A4B02F03DFB0200F0
:101DA0000B002000290001F0E7FB04000D0003F008
:101DB00021F90022039000232000290001F0B4FB48
:101DC00000280DD0039803F04BF902000B0020000F
:101DD000290001F0A3FB43424341039AD31A039322
:101DE00001231693039B162B11D88749DB00C918D2
:101DF00008684968069A079B01F0AAFB002805D0ED
:101E0000039B013B03930023169300E016901A9B5B
:101E10009E1B00230B93013E0C9604D50C9B5B424A
:101E20000B9300230C93039B002B08DB039A0C9B62
:101E3000944663440C9300231192089307E00B9B94
:101E4000039A9B1A0B935342089300231193229BEE
:101E50000125092B25D8052B02DD0025043B229303
:101E6000229B981E032824D801F054FA060E02047F
:101E7000012302E0012308E000231093239B002BA1
:101E800020DD1F000A9321E00023239A1093039B77
:101E90009F187B1C0A930123FA18002A16DD1300F1
:101EA00014E0012700237F42229310950A971233F2
:101EB00005E0012701237F4210930A971133002286
:101EC000239203E001273B000A972397049A546A60
:101ED00000226260043211001431994204D8616812
:101EE000520001316160F6E76168049800F08DFCF2
:101EF000049B20605B6A1B680D930A9B0E2B00D924
:101F000081E1002D00D17EE1069B079C149315947E
:101F1000039B002B31DD0F223B491340DB00CB1824
:101F20005C681B680E930F94039B02241D11EB0643
:101F30000AD514981599354B15401A6A5B6A01F059
:101F400047FE069007910134304E002D0ED001233C
:101F50001D4208D00E980F99E4183268736802F099
:101F60005BFA0E900F916D100836EEE70E9A0F9BFC
:101F70000698079901F02CFE4CE0039B02245D4279
:101F8000002D49D0149815990F231F4A2B40DB00D0
:101F9000D3181A685B6802F03FFA00230690079195
:101FA0001A4E2D11002D33D00122154205D0A41850
:101FB0003268736802F030FA01236D100836F1E7D9
:101FC0000000F07F0F270000F1530008E8530008DD
:101FD000C4530008C55300080000F03F01FCFFFF98
:101FE0003204000012040000000010FE0000F83F60
:101FF00061436F63A787D23FB3C8608B288AC63F0F
:10200000FB799F501344D33FF8530008C054000895
:10201000002B01D006900791169B002B1DD0069D2A
:10202000079E0022C74B2800310001F07DFA0028EE
:1020300013D00A9B002B10D0002F00DCDFE0039BA5
:102040003100013B0E930022BF4B280002F0E4F95F
:102050000134069007913E0002E0039B0A9E0E9316
:10206000200002F0FDFF069A079B02F0D5F900223E
:10207000B64B01F081FAB64A12901391129C139D4F
:102080009446139B634418931D00002E1CD10698A0
:1020900007990022AF4B02F039FC2200189B0690F2
:1020A000079101F055FA002800D054E2AA4813998C
:1020B000844661440B0006980799220001F034FA27
:1020C000002800D03DE29AE0109A731EA349DB007D
:1020D000002A49D0CB181A685B680020A04901F09B
:1020E00077FD2B00220002F011FC129013910D9D40
:1020F0000698079902F07EFF040002F0B1FF02008B
:102100000B000698079902F001FC01356B1E303474
:102110001C70129A139B0690079101F005FA002893
:1021200000D02EE3069A079B0020864902F0EEFBC2
:10213000129A139B01F0F8F9002800D0C7E00D9B1C
:10214000EB1AB3425BDA1298139900227E4B02F02D
:1021500063F9002212901391069807997A4B02F0C6
:102160005BF906900791C3E7C9182200086849681F
:102170002B0002F051F90D9C12901391A5190698AD
:10218000079902F037FF060002F06AFF02000B0019
:102190000698079902F0BAFB303626700134069093
:1021A00007910022A54222D16D4B1298139901F09C
:1021B000E3F902000B000698079901F0C9F900281D
:1021C00000D084E0129A139B0020654902F09EFB28
:1021D00002000B000698079901F0A6F900280ED01E
:1021E0006B1E1A78302A00D0CBE21D00F8E7069863
:1021F0000799554B02F010F906900791BFE7149B21
:10220000159C069307941B9B002B00DA81E0039A30
:102210000E2A00DD7DE0D300504AD3185C681B68AD
:1022200008930994239B002B15DA0A9B002B12DCE0
:1022300000D088E1089809990022464B02F0ECF89A
:10224000069A079B01F08EF90A9B08931E0000284E
:1022500000D07BE182E10D9D069E079F089A099BB5
:102260003000390001F0B4FC02F0C4FE040002F0BA
:10227000F7FE089A099B02F0CFF802000B0030002D
:10228000390002F043FB220001356B1E30321A7018
:102290000D9B0A9AEB1A9A422ED102000B0001F014
:1022A0006BF906000F0002000B000898099901F075
:1022B0003BF900280FD10898099932003B0001F042
:1022C0002DF9002800D15EE2E30704D45BE20E9B07
:1022D000039300E01D006B1E1A78392A08D10D9A6D
:1022E0009A42F7D1039A0D990132039230220A7073
:1022F0001A7801321A7046E20022134B02F08CF871
:102300000022002306000F0001F008F90028A5D0E4
:1023100039E2109A002A44D0229A012A0BDC179A3B
:10232000002A02D00F4A9B1802E036231A9A9B1A01
:10233000089D0B9C29E00A9B5D1E089BAB4213DBAA
:102340005D1B18E00000F03F0000244000001C402E
:102350000000C0FC000014400000C07CF8530008DE
:102360000000E03F33040000089B0895EA1A0025AE
:10237000119B9B1811930A9B002B04DA0B9B0A9A62
:102380009C1A002301E00B9C0A9B0B9A0121D21896
:102390000B920C9A0498D3180C9300F00EFB0600D5
:1023A00002E0089D0B9C109E002C0ED00C9B002B75
:1023B0000BDD0C9A2300944200DD13000B9AE41A03
:1023C000D21A0B920C9AD31A0C93089B002B20DD87
:1023D000109B002B17D0002D11D031002A0004983B
:1023E00000F07EFB059A01000600049800F0EEFA6A
:1023F00005990E90049800F040FA0E9B0593089BF7
:102400005A1B06D000E0089A0599049800F068FB72
:1024100005900121049800F0D0FA119B0890002B40
:1024200000D1C0E11A000100049800F059FB229B82
:102430000890012B17DC0025069BAB420ED1079BB1
:102440001B03AB420AD1199B079A134206D00B9B80
:10245000013501330B930C9B01330C93119B01202D
:10246000002B0DD000E00025089B089A1B690E93F5
:1024700003339B00D318586800F055FA2023181A2C
:102480000C9BC0181F23184009D001331B1A042BC2
:1024900002DD1C23181A03E0042B08D018001C309E
:1024A0000B9B24181B180B930C9B1B180C930B9B5A
:1024B000002B05DD1A000599049800F065FB0590D6
:1024C0000C9B002B05DD1A000899049800F05CFBBA
:1024D0000890169B002B1DD00899059800F0A6FBCC
:1024E000002817DA039B0A22013B03930599002376
:1024F000049800F0DBF9109B0590002B00D159E106
:10250000310000230A22049800F0D0F90600002FC1
:1025100037DC33E00A9B0A9F002B2ADC229B022B2C
:1025200027DD002F12D108993B000522049800F006
:10253000BDF908900100059800F078FB00280DDC3B
:1025400004E0089602E000231E000893239B0D9DE3
:10255000DB4303930AE00E9B089603930D9B0D9AB1
:102560005D1C31231370039B013303930A960026ED
:10257000F3E0109B002B04D10D9DB5E0229B022BB4
:10258000CFDC002C05DD31002200049800F0FCFABD
:1025900006000A96002D12D07168049800F035F9F3
:1025A0003100040033690C319A1C92000C30FEF7A4
:1025B000CFFD01222100049800F0E6FA0A900D9B5D
:1025C0007D1E0B935B190E9308990598FFF7B0FADF
:1025D000310010900400059800F028FB0A9A0500CD
:1025E0000899049800F03DFB01230C93C368303434
:1025F0000700002B04D10100059800F017FB0C9098
:102600003900049800F039F90C9B229A134308D141
:10261000069A0133134204D1392C2AD0002D1CDC38
:102620001DE0002D06DB229B1D431BD10123069AD2
:10263000134217D10C9B002B11DD05990122049840
:1026400000F0A2FA0899059000F0F0FA002802DCE8
:1026500005D1E30703D5392C0BD0109C31340B9BEB
:102660005D1C0FE00B9B5F1C0C9B002B0CDD392CC1
:1026700005D10B9B0B9A5D1C3923137057E03D006D
:102680000B9B01341C7068E00B9B0E9A3D001C7084
:1026900093423CD000230A220599049800F006F9E1
:1026A0000A9B05909E4208D1310000230A2204981B
:1026B00000F0FCF806000A900DE0310000230A2229
:1026C000049800F0F3F8002306000A220A990498FF
:1026D00000F0ECF80A900B9776E700230A220599A0
:1026E000049800F0E3F8059008990598FFF720FAA0
:1026F0000D9B3030287001350400EB1ABB42ECDB37
:102700003D1E00DC01250A9600260D9B5D190599EA
:102710000122049800F038FA0899059000F086FA32
:10272000002804DC13D1E30701D410E01D006B1E68
:102730001A78392A08D10D9A9A42F7D1039B0133AE
:1027400003933123137008E001321A7005E06B1E09
:102750001A78302A01D11D00F9E70899049800F091
:102760008CF80A9B002B0ED0002E05D09E4203D081
:102770003100049800F081F80A99049800F07DF87F
:1027800001E00E9B03930498059900F076F800236E
:102790002B70039B249A01331360269B0D98002B0A
:1027A00010D01D600EE0229B012B00DC43E6119D42
:1027B000012065E6002F00DDDEE6229B022B00DC17
:1027C000DAE6AEE61DB0F0BD034B1B68186A0028C0
:1027D00000D10248F0307047980400209C0400208B
:1027E00010B5034B0100186800F054FB10BDC04643
:1027F00098040020C9B28218904204D003788B421A
:1028000002D00130F8E70020704770B5466A040036
:102810000D00002E07D11020FFF7E2FF6062466036
:1028200086600660C660666AF368002B09D0636A3A
:10283000AA00DB689B18186800280ED002681A608E
:1028400017E021220421200000F0CAFA636AF06038
:10285000DB68002BEBD100200EE001210E00AE4022
:10286000721D9200200000F0BBFA0028F3D04560F2
:10287000866000230361C36070BD70B5456A0600C1
:102880000C00002D07D11020FFF7AAFF70624560F1
:1028900085600560C560002C07D0726A6368D268E5
:1028A0009B00D3181A6822601C6070BDF7B5070042
:1028B00008000C000D691E00002101921430019ADD
:1028C0000388013153439B190668360C56431A0C92
:1028D0009446B4446246160C120494469BB2634478
:1028E00008C08D42EBDC002E1BD0A3689D4212DB9A
:1028F00063683800591CFFF788FF210023690190A5
:102900009A1C92000C310C30FEF722FC210038009A
:10291000FFF7B3FF019C2B1D9B00E31801355E60A0
:1029200025612000FEBD00220300010C914201D16F
:1029300003041032190E01D108321B02190F01D104
:1029400004321B01990F01D102329B001000002BB1
:1029500003DB20205B0000D5501C70470722036872
:1029600010B501001A400CD001240020234223D1CD
:102970000222134203D0E34020000B601CE09B08BE
:1029800018E098B2002801D110221B0CD8B2002800
:1029900001D108321B0A180701D104321B0998071C
:1029A00001D102329B08D80704D45B082020002BF9
:1029B00002D0013210000B6010BD10B50C000121D7
:1029C000FFF723FF01234461036110BDF0B50B69DC
:1029D0001400126989B00D00934201DA25000C0041
:1029E0002F692669AA68BB1969680193934200DDC3
:1029F0000131FFF70AFF0200BB1914329B00D31804
:102A00009C46002113000290634501D202C3FBE7FC
:102A10001435BF00EB191434B6000593A3190395C0
:102A20000793079B9C4251D2208800281ED0150096
:102A30000026039F08CF069504936B461B8A4343E9
:102A400019002B88CB1804999B19090C41432E6857
:102A5000360C89191E0C89190E0C9BB209040B4304
:102A600008C5059BBB42E5D8069B5E6023681D0C2C
:102A70001FD0002110001368039F04913E88016855
:102A80006E43090C7118049E9BB289190E043343DE
:102A9000036008CF86881B0C6B43090C9B195B18DD
:102AA000190C0491059906900430B942E6D80699AC
:102AB0004B6004340432B4E704235B429C44634615
:102AC0001B68002B05D1019B013B0193019B002B4F
:102AD000F2DC029B019A18001A6109B0F0BD0000F7
:102AE0000323F7B5134005000E001400002B08D097
:102AF0002349013B9A00525800233100FFF7D6FECC
:102B00000600A310019338D06C6A002C07D1102066
:102B1000FFF766FE6862446084600460C4606F6AA8
:102B2000BC68002C10D117492800FFF746FF00238E
:102B3000B8600400036007E0019B5B1001931CD0A8
:102B40002068002810D004000122019B1342F3D01A
:102B5000310022002800FFF739FF0700310028006C
:102B6000FFF78BFE3E00E7E7220021002800FFF779
:102B70002DFF002320600360E5E73000FEBDC04666
:102B8000E854000871020000F0B50C00170023693A
:102B9000551185B0EB180193013300934968A36880
:102BA0000290009A934202DA01315B00F9E7029841
:102BB000FFF72BFE00230200060019001432AB427F
:102BC00003DA980011500133F9E7EB43DB171D409E
:102BD0002300AD0055192269143392009A189446C7
:102BE0001F22174014D00132D21B03920022196811
:102BF0002800B9400A4304C504CB0399CA409C4548
:102C0000F5D84260002A07D0019B0233009303E00D
:102C100004CB04C59C45FBD8009B0298013B336163
:102C20002100FFF72AFE300005B0F0BD03690A69F4
:102C300010B59B1A0400181E12D1930014341431DD
:102C4000E218C918043A043913680868834204D0AA
:102C500083429B410120184302E09442F2D30020BA
:102C600010BDF0B50C0085B0070011002000150064
:102C7000FFF7DCFF061E07D101003800FFF7C5FD96
:102C800001234661036155E000230193984204DA71
:102C900023002C001D000123019361683800FFF719
:102CA000B4FD019B26692F00C3601434B300E31800
:102CB000020002932B69002514379B00FB18039335
:102CC000143208CC69469C4608CF04320093634610
:102CD0008B808B885D19009B9BB2EB1A6546019334
:102CE000009B2D0C190C019B691A1D14131F9C4687
:102CF0006B4649199B880D1409040B4361460B6010
:102D0000039BBB42DDD8029913008C420BD202CC4C
:102D10008BB25B191D14090C49190D149BB20904DF
:102D20000B4308C2EFE7043B1A68002A01D1013EB9
:102D3000F9E7066105B0F0BDF7B51D000121089F58
:102D40001400FFF762FD2B036D0006001B0B6D0DD9
:102D500002D08022520313430193002C18D06846FE
:102D60000094FFF7FBFD009C002809D0019B202167
:102D70001A00091A8A40C34022437261019300E09D
:102D80007461019CB461631E9C410134346107E0AD
:102D900001A8FFF7E3FD0124019B3461736120303A
:102DA000002D06D00B4BED1835232D183D60181A59
:102DB0000BE0094BC018094B3860E3189B00F3186F
:102DC0005869FFF7B0FD6401201A099B18603000B4
:102DD000FEBDC046CDFBFFFFCEFBFFFFFFFFFF3F69
:102DE0004A4370B51100140000F054F8051E03D0DA
:102DF0002200002100F047FA280070BD70B50500E0
:102E0000002944D00C1F2368002B00DAE4182800A6
:102E100000F041FA1E4A13681100002B02D16360D2
:102E2000146031E0A3420DD92268A018834203D177
:102E300018685B688218226063600C6024E0A2421C
:102E400003D813005A68002AF9D11E689819A042C5
:102E50000BD12168711858181960824214D110687A
:102E60005268411819605A600EE0A04202D90C2342
:102E70002B6009E021686018824203D11068526813
:102E80004118216062605C60280000F005FA70BDA6
:102E9000A4060020032370B5CD1C9D430835060011
:102EA0000C2D01D20C2501E0002D01DBA94202D935
:102EB0000C23336048E0300000F0EDF9234B1C6830
:102EC0001A002100002913D00B685B1B0DD40B2BBB
:102ED00002D90B60CC181EE08C4202D163681360EB
:102EE0001AE04B6863600C0016E00C004968E9E7E3
:102EF000174C2368002B03D1300000F08BF92060C1
:102F00002900300000F086F9431C18D00323C41CAC
:102F10009C43A0420DD12560300000F0BDF9200097
:102F200007220B30231D9043C31A0ED05A42E250A1
:102F30000BE0211A300000F06DF9431CEBD10C239B
:102F40003000336000F0A8F9002070BDA406002016
:102F5000A0060020F0B58E6885B007000C00039233
:102F600001939E4243D890238A89DB001A423ED0C7
:102F700003250969236801985B1A029363695D431D
:102F8000EB0F5D19029B6D1001331B18AB4200D98A
:102F90001D00530510D529003800FFF77BFF061EE2
:102FA00014D0029A2169FEF7D3F8A289194B134075
:102FB00080221343A38112E02A00380000F06DF94B
:102FC000061E0CD121693800FFF718FF0C234022A0
:102FD00001203B60A38940421343A38117E0029B79
:102FE0002661F61826606561019EED1AA560019BB9
:102FF000B34200D21E0032000399206800F02EF97F
:103000000020A3689B1BA36023689E19266005B05F
:10301000F0BDC0467FFBFFFFF0B59FB00290059367
:103020008B890F0016001B0610D50B69002B0DD1E4
:103030004021FFF72FFF38603861002804D10C23AE
:10304000029A01381360D8E040237B61002306AD6B
:103050006B6120336B761033AB7634002378002B12
:1030600003D1A31B049312D003E0252BF9D0013424
:10307000F4E7A31B320039000298FFF76BFF431CF3
:1030800000D1B4E06A69049B944663446B61237881
:10309000002B00D1ABE00122002352426A6002A95A
:1030A0005432521801342B60EB60AB601370AB6587
:1030B000534E217805223000FFF79CFB002807D0F3
:1030C0000123801B83402A68013413432B60EFE700
:1030D0002B68DA0604D55322202102A81218117099
:1030E0001A0704D553222B2102A812181170227836
:1030F0002A2A03D0099B00200A210EE0059A111DFF
:1031000012680591002A01DB099204E05242EA604C
:10311000022213432B6001340BE02278303A092A53
:1031200004D84B4301349B180120F6E7002800D057
:10313000099323782E2B1ED163782A2B0AD1059B65
:1031400002341A1D1B680592002B01DA01235B4231
:10315000079310E000230A201A0001346B602178E5
:103160003039092904D84243013452180123F6E7C3
:10317000002B00D00792234E217803223000FFF766
:1031800039FB002806D04023801B83402A68013485
:1031900013432B60217806221B48661C2976FFF713
:1031A00029FB002812D0194B002B06D10722059BC2
:1031B000073393430833059314E005AB00933A00BB
:1031C000134B29000298FEF763F807E005AB009364
:1031D0003A000F4B29000298FEF718FB0390039B5F
:1031E000013304D06B69039A9B186B6135E7BB8987
:1031F0000B985B0601D5012040421FB0F0BDC046D0
:10320000F4540008FA540008FE5400089112000813
:10321000552F0008002370B5064C050008002360F8
:10322000FDF730FC431C03D12368002B00D02B603A
:1032300070BDC046AC06002082B0002900D101A9B3
:10324000101E09D0002B05D013780B601078431E98
:10325000984101E00220404202B0704710B5884218
:1032600002D98B18984201D3002305E09B1A013A3A
:1032700008D3995C8154FAE7934203D0CC5CC454E0
:103280000133F9E710BD03008218934202D0197090
:103290000133FAE7704770477047F8B506000C0035
:1032A0001500002904D11100FFF7F4FD040018E017
:1032B000002A03D1FFF7A2FD2C0012E000F01FF856
:1032C00085420ED929003000FFF7E4FD071E07D024
:1032D00021002A00FDF73CFF21003000FFF78EFDA2
:1032E0003C002000F8BD0B1E07D0FF2A03D98A231B
:1032F00003608B3B01E001230A70180070470B1F2D
:103300001A68101F002A04DA891804390B68D018CB
:103310000438704702B4714649084900095C490005
:103320008E4402BC7047C04603460B437FD4002244
:1033300043088B4274D303098B425FD3030A8B4249
:1033400044D3030B8B4228D3030C8B420DD3FF22B3
:10335000090212BA030C8B4202D31212090265D081
:10336000030B8B4219D300E0090AC30B8B4201D334
:10337000CB03C01A5241830B8B4201D38B03C01A7B
:103380005241430B8B4201D34B03C01A5241030BF2
:103390008B4201D30B03C01A5241C30A8B4201D3A3
:1033A000CB02C01A5241830A8B4201D38B02C01A4E
:1033B0005241430A8B4201D34B02C01A5241030AC5
:1033C0008B4201D30B02C01A5241CDD2C3098B42AA
:1033D00001D3CB01C01A524183098B4201D38B0127
:1033E000C01A524143098B4201D34B01C01A5241CA
:1033F00003098B4201D30B01C01A5241C3088B420F
:1034000001D3CB00C01A524183088B4201D38B00F9
:10341000C01A524143088B4201D34B00C01A52419B
:10342000411A00D201465241104670475DE0CA0F72
:1034300000D04942031000D34042534000229C4632
:1034400003098B422DD3030A8B4212D3FC2289013C
:1034500012BA030A8B420CD3890192118B4208D312
:10346000890192118B4204D389013AD0921100E074
:103470008909C3098B4201D3CB01C01A5241830988
:103480008B4201D38B01C01A524143098B4201D3B5
:103490004B01C01A524103098B4201D30B01C01AE0
:1034A0005241C3088B4201D3CB00C01A524183085A
:1034B0008B4201D38B00C01A5241D9D243088B42B0
:1034C00001D34B00C01A5241411A00D20146634653
:1034D00052415B10104601D34042002B00D54942B7
:1034E000704763465B1000D3404201B50020FDF7F2
:1034F00027FE02BD0029F8D016E770478446101C4D
:1035000062468C46191C634600E0C0461FB500F0B9
:1035100019FF002801D40021C8421FBD10B500F0DA
:103520006DFE4042013010BD10B500F00BFF0028C9
:1035300001DB002010BD012010BDC04610B500F019
:1035400001FF002801DD002010BD012010BDC04694
:1035500010B500F093FE002801DC002010BD012012
:1035600010BDC04610B500F089FE002801DA002029
:1035700010BD012010BDC046F8B556465F464D4609
:103580004446F0B40F00FD0FAA4609037C002E004C
:103590005F00450F490A7F0D2943C5001803BC464B
:1035A000400A570F640DDB0F3843D2009A4500D113
:1035B000AAE06646A61B002E00DCFFE06346002B57
:1035C00039D10300134300D0D9E06B0709D00F2392
:1035D0002B40042B05D02B1DAB42AD416D42491948
:1035E0001D000B0200D482E0CA4B01349C4200D182
:1035F000FEE00A005646C84BED081A405007640525
:1036000052020543120B640D002112030B0D1B0522
:103610006405120B1A436308C04CF60714401C43A0
:10362000640064083443280021003CBC904699465D
:10363000A246AB46F8BDB74B9C42C6D080231B04C4
:103640001843382E00DDEBE01F2E00DD1EE12023A5
:103650009B1B9C4603006746BB40984613004746A9
:10366000F3403B436746BA40571EBA41134302003A
:10367000F240EB1A9D42B6411D008A1A7642911B18
:103680000B0231D54A02560A002E00D1B4E03000B8
:1036900001F060FD0300083B1F2B00DDB5E0202298
:1036A0002900D21AD1409E400A009D4032439C42DC
:1036B00000DDB1E01C1B631C1F2B00DDD5E02021C9
:1036C00014002800C91A8C40D8408D400443DA40C9
:1036D000681E854111002543002476E741463143A9
:1036E00000D134E2310045466B0700D06FE7564603
:1036F0004807ED08C9080543864B9C4235D00A03AC
:103700006405120B640D7FE76346E31A9B46002BAA
:1037100000DC8BE06746002F3CD07E4FBC4200D1DE
:1037200053E780273F0438435B46382B00DCF7E043
:103730000243501E82410020D2B253194218AB42BC
:1037400089411D00494289180B02CDD5714B0134C6
:103750009C4200D13DE101206F4A6B080A4028409D
:103760001843D507054351082FE72B000B4300D121
:10377000CBE180231B030B431A03120B44E7013EEA
:10378000002E6DD1AE1AB5429B41091A5B42C91A8F
:10379000350075E70700174300D116E701235B42A8
:1037A0009C46E3445B46002B00D0E0E0AA18AA4206
:1037B0009B4109185B4259181500C5E7002E75D1C9
:1037C000661C7605760D012E00DCF3E0AE1AB046DD
:1037D0004545BF410E1A7F42F61B370200D48FE0E9
:1037E000551BAA42B641411A76428E1B9A464BE7B8
:1037F00056460022002507E7280001F0ABFC2030E8
:103800000300083B1F2B00DC49E72A0028388240D0
:1038100000259C4200DC4DE73F49E41A1140D4E604
:103820000243501E8241D3B2002222E7002B00D077
:10383000F3E0631C9C465B055B0D012B00DC9FE005
:10384000344B9C4500D1C3E0AA180918AA42804114
:1038500040424118CD075208154349086446B4E672
:103860002C4B9C4200D0ECE6AFE611001F3CE1403F
:103870000C00202B00D17FE04021CB1A9A40154349
:103880006A1E95410021254300242DE733000700DF
:10389000203BDF403B00202E70D04027BE1BB040B5
:1038A0000243501E824113430022E2E6002C4FD017
:1038B000184CA44500D1ABE0802424047642214377
:1038C000382E00DDDFE01F2E00DD43E12027BC1B8A
:1038D000A1460C004F46BC40A0462C004746F44091
:1038E0003C434F46BD406F1EBD41F1402C43151B6C
:1038F000AA429241411A5242891A64469A46BFE648
:1039000041464546314300D0BEE60026002400254E
:10391000F2E6C046FF070000FFFF7FFFFFFF0F80BA
:103920001F2B59DC2027FF1ABC46070063469F4027
:103930005B46B9461700DF40B8464F4643461F4333
:1039400063469A40531E9A415B463A43D840F4E698
:103950000C002C435CD0F643002E55D1551BAA42D7
:10396000A441411A6442091B9A46644688E6964F70
:10397000BC4200D0D8E628E6002280E700208FE78E
:103980000B002B43002C00D0C2E0002B00D101E142
:103990000300134300D118E6AB18AB42B641091837
:1039A000764271180A0200D409E1884A1D001140CC
:1039B00064460AE6002C5BD10E002E4300D08AE05C
:1039C0000100114300D1C2E0010015009A46FCE558
:1039D0006446002100258FE620235B429C46DC44A0
:1039E00063460700DF405B46BC46202B00D1ACE0BD
:1039F00040235F46DB1B98400243501E82416346D2
:103A000013431A00002098E66F4CA44500D057E7F6
:103A10000100150064469A46D7E5002C39D10C0008
:103A20002C436ED0DB43002B1AD0674CA44568D0E2
:103A3000382B00DDA4E01F2B00DDAEE020240F00BA
:103A4000E41AA740B9462F00DF40B846A3464F46C8
:103A5000444627435C46A5406C1EA541D9403D43E2
:103A6000AD1895429B4109185B42591864466BE6B4
:103A70000C002C4315D1010011437BD0010015002F
:103A80009A46514CA1E50D43691E8D410021ECB2CF
:103A90002DE74D4CA44534D0802424045B422143BF
:103AA000C6E7040014434ED0ED084C072C43802594
:103AB000C9082D03294208D0C6082E4205D1D208D4
:103AC000410711430C009A463100620FC900E5001E
:103AD00011433D4C79E50600164300D175E5AE1A59
:103AE000B0464545BF410E1A7F42F61B370200D44F
:103AF000F4E5551BAA42B641411A7642891B9A4603
:103B000063E50100150064465FE5002200257BE5C2
:103B1000002B3BD00300134315D0ED084B072B437C
:103B20008025C9082D03294207D0C4082C4204D19E
:103B300041070B002100D2081343C9005A0F11435B
:103B4000DD00214C41E5204C3FE5002054E70026F4
:103B50000025D1E534000F00203CE7403C00202E3A
:103B60002BD04027BE1BB1400D43691E8D41002163
:103B70002C43BCE6802100260903134C0025BBE53D
:103B80000D43691E8D410021EDB269E7010015006A
:103B90000D4C1AE50100150017E51C000F00203C34
:103BA000E7403C00202B0CD04027FB1A99400D43E6
:103BB000691E8D410021254352E70021D4E71D00F5
:103BC00092E50021F3E7C046FF070000FFFF7FFFFB
:103BD000F0B556464D4644465F46F0B41D000E0310
:103BE0004C00CB0F87B0070092468146360B640D20
:103BF00098466AD06D4B9C4235D08022430F120408
:103C00001343F6001E43C3009946694B00279C46A8
:103C10000023644402932B0368001B0BED0F5146F5
:103C20009B46400D009500D178E0604B98426CD0E7
:103C30005B46DA004B0F802109040B4313439B467C
:103C40005346D9005A4B9C46002360444246201AF2
:103C50006A40924601901F430F2F00D9B0E05548AB
:103C6000BF00C0598746374300D088E000239946FB
:103C70000233082700260293CDE74346B346494660
:103C80000093029B009A9246022B00D0BFE10021D4
:103C900053460122002689461A40444B0021360330
:103CA0000C0D2405360B2643434C1B0526401E43B2
:103CB0007600D207760816434846310007B03CBC70
:103CC00090469946A246AB46F0BD330003434FD021
:103CD000002E00D1BCE1300001F03CFA03000B3BA8
:103CE0001C2B00DDADE11D220100D31A08393A007A
:103CF0008F408E40DA40B9461643304B00279C4631
:103D0000002360444442029385E753465A461343D6
:103D10002CD1002300219B46023397E70B4320D090
:103D20005B46002B00D19EE1584601F013FA0300D8
:103D30000B3B1C2B00DD8FE102005946083A9140F5
:103D40008B461D21CB1A5146D9400B0059460B43D7
:103D500051469B469140194B9C466044404200238B
:103D600074E7002300219B4601336FE703236DE7CF
:103D70000023994601330427002602934BE70323CF
:103D80000C27029347E70122D51A382D00DCB0E159
:103D900053461A4000210023002689467EE700236F
:103DA0008026994600223603004B77E7FF07000084
:103DB00001FCFFFF10560008FFFF0F80F303000017
:103DC0005E4500D972E100D16DE1019B4D46013B9A
:103DD00001930023340002935B461E020B0E1E4328
:103DE0000B020393330C994633041B0C4946200005
:103DF0000093FDF71BF9009B37004343060049463B
:103E000020009846FDF798F92C0C09040C43A045B6
:103E100009D9E419731EA74200D95CE1A04500D876
:103E200059E1023EE4194346E41A49462000FDF7F1
:103E3000FDF80300009A80465343494620009B4604
:103E4000FDF77AF92A040904120C0A4393450DD9A7
:103E50004346D219013B974200D93AE1934500D835
:103E600037E102235B429C46D219E0445B46D21AFA
:103E70004346360433439B460399180C0B0C1D0034
:103E8000059309045B46090C0C001B041B0C4443FE
:103E9000049159436B4368431B190D0CEB189C426A
:103EA00003D980246402A44660441C0C09041B044A
:103EB000090C20185D18824200D2DEE000D1D7E064
:103EC000161A029B9C465D1BAC459B415B42F61A51
:103ED000B74200D106E149463000FDF7A7F8009B44
:103EE00004004343494630009846FDF725F92E0C5F
:103EF00009040E43B04509D9F619631EB74200D92B
:103F0000F3E0B04500D8F0E0023CF6194346F31A5E
:103F1000494618000293FDF789F8009B06004343C9
:103F2000494602989846FDF707F92D0409042D0C1F
:103F30000D43A84509D9ED19731EAF4200D9D6E04B
:103F4000A84500D8D3E0023EED19240421004346E1
:103F50003143049E059A3000ED1A0B040C0C1B0C27
:103F600058436643534354439A19030C9B189E428B
:103F700003D980225202944664441A0C00041B04A4
:103F8000000C14191B18A54250D34DD0012319431E
:103F9000964A019B94466344002B00DCF3E64A07F3
:103FA00009D00F220A40042A05D00A1D8A428941FD
:103FB00049428B4411005A46D20108D55A468C4BCF
:103FC0001A4093468022D2009446019B6344894A5A
:103FD000934200DD5BE65A46C90850070843560283
:103FE000514601225B058146360B5B0D0A4055E6C2
:103FF00080231B031E4211D05A461A420ED15E4640
:104000001E433603360B2A0089467B4B46E6032BBC
:1040100000D1E1E0012BBBD11A40BBE61E433603C1
:10402000360B4246744B39E6002BB1D07D194A1E3F
:10403000AF4252D91100A542A8D1039A9A42A5D104
:10404000A6E703003E00283B9E400023994654E625
:1040500001F080F8203041E603005246283B9A40A8
:104060000021934677E6504601F074F820305EE672
:10407000029B0026AB4200D323E7039E0299B4467D
:1040800061448846B045B6415B467642F619B2189F
:10409000013B0291974213D290424FD800D18EE05B
:1040A000161A9B460DE7894500D28EE674084B46EA
:1040B000F60735005B081D434B46DB0702938BE692
:1040C0009742EDD10399029CA142E5D93E1A9B4645
:1040D000F7E69846CAE61E00A5E6AC423ED874D084
:1040E000110053E70121494252E71C000EE71E0070
:1040F0002BE71F2D3CDC20230A0058465B1B984011
:10410000EA4099400243481E81415E461143EE4019
:104110004B0709D00F230B40042B05D00B00191DB2
:1041200099429B415B42F61833023CD5534601222B
:1041300000211A40002601238946AFE502235B4295
:104140009C46039CE344A446029B63449846A045D6
:10415000B6417642F6190293B218B1E603988A1E68
:1041600041008142B6417642F619AD19039161E7EB
:104170001F225242D31A5A46DA401300202D29D06A
:1041800040225846551BA8400143481E8141072044
:104190000B4318400026002809D00F2200261A40A1
:1041A0001900042ABBD10B0070077602360BDB081E
:1041B00003439946012253461A4000236EE50299B3
:1041C0008D42BBD89B4600267BE603989842C5D318
:1041D000110032E70020D7E780265B4636031E43F6
:1041E0003603360B009A8946034B57E5FF03000060
:1041F000FFFFFFFEFE070000FF070000F0B55F466F
:1042000056464D464446F0B41F035C00DB0F9A4609
:10421000194B0E034D00C90F8046360B6D0D8B46B2
:1042200091463F0B640D9D4219D0134B9C421BD00D
:104230000123A54206D018003CBC90469946A246F0
:10424000AB46F0BDBE42F6D1C845F4D1D34510D03F
:10425000002DF0D1304303005A1E9341EBE73100AB
:1042600001230143E7D1E0E73A430123002AE2D1E9
:10427000DEE70023DFE7C046FF070000F0B55F463A
:10428000444656464D46F0B41F033C0B2C4F0E03DC
:104290004D00A3465C008446360B6D0DC90F904659
:1042A000640DDB0FBD422BD0254FBC422ED0002D1C
:1042B0000ED130430700814678427841002C17D157
:1042C0005F463A4314D14B460020002B0AD006E04B
:1042D000002C02D15846024301D099421AD0012342
:1042E000484218433CBC90469946A246AB46F0BDB6
:1042F0000028F2D058425841012240421043F1E7D1
:1043000037000743D0D002204042EBE75F46174317
:10431000CDD0F8E7A542E2DC05DB5E45DFD808D06A
:1043200000205E45DED24842484101234042184306
:10433000D8E7C445D3D80020C445F4D3D2E7C0465B
:10434000FF070000F0B55F464D4644465646F0B4C0
:104350001C03240BA4462F4C0F034D005E00C90F15
:1043600080463F0B6D0D8B469146760DDB0FA542C7
:1043700020D0284CA64222D0002D12D138434442EE
:104380004441002E20D0002C0DD05C42634101241A
:104390005B421C4320003CBC90469946A246AB467B
:1043A000F0BD002E17D05B4519D05B465C4201235F
:1043B0001C43EFE7390002240143EBD1D9E7614602
:1043C00002241143E6D1D7E761460A43DBD100243A
:1043D0000028DFD0E9E761460A43E4D1E5E7B542CA
:1043E00003DD01225C421443D4E7B542CDDB6745CF
:1043F000DBD809D000246745CCD259464C426141F4
:10440000012449420C43C5E7C845CED80024C8451D
:10441000F3D3BFE7FF070000F0B55F4656464D46B1
:104420004446F0B40D0399464E002B0B87B00700AD
:10443000924680469B46760DCC0F002E69D06D4B80
:104440009E4235D05B468022DD001204430F1343A9
:104450002B439B46C3009846674B00279C4600238E
:10446000664401934A4615035000D20F53462D0B64
:10447000400D914600D176E05E4A90426CD0802299
:104480005B0F120413435C4AED0094461D435346F0
:104490000022DB00604449463618701C61400290DF
:1044A00017430F2F00D9AFE05448BF00C759BF468C
:1044B0005B461F4300D088E000239B4698460233AA
:1044C00008270193CEE74946022A6AD0032A00D181
:1044D00009E2012A00D0BBE111400022002300259F
:1044E0009046CCB200212D030A0D12052D0B154369
:1044F000434A1B0515401D436D00E4076D08254325
:104500004046290007B03CBC90469946A246AB46BF
:10451000F0BD034352D05B46002B00D18AE15846E0
:1045200000F018FE03000B3B1C2B00DD7BE11D227D
:10453000D31A3A0001005D46DA4008398D40130075
:104540008F402B439B46B8462E4B00279C460023AA
:1045500060444642019385E752462A432CD1002508
:104560000023022297E752462A4321D0002D00D192
:1045700054E1280000F0EEFD03000B3B1C2B00DD96
:1045800046E11D21CB1A51460200D9405346083A54
:10459000954093400D431B4A94466044404200229C
:1045A00079E7012400220C40124B0025904699E740
:1045B0000025002301226EE703226CE700239B46BF
:1045C00098460133042701934CE703230C270193FA
:1045D00048E700238025984600242D03054B81E7FA
:1045E0005D464346019A6FE75D4643462100019AC6
:1045F0006AE7C046FF07000001FCFFFF50560008B5
:10460000FFFF0F80F30300004246120C91461A0C84
:104610009446424617044A461B041B0C5A43604604
:1046200090464A4642431000039262461C003F0CEB
:104630007A437C4342440192220C9246019A5244AE
:10464000904506D98246802040028046C2445046AA
:104650000390100C049048462404240C12041219F0
:1046600005922A0C2D042D0C68432C0082464846E6
:104670007C4350438146200C80465743574447446F
:10468000BA4503D9802040028046C144380C3F041B
:10469000B84648442404240C01900498A0444044A3
:1046A00004905846000C814658460404200C82466B
:1046B000070048465F434C464343604660436446B8
:1046C000834650464443380C8446E4186444A3426D
:1046D00003D980235B029C46E34448463F04230CF5
:1046E0003F0C2404E419574668436F4384464D4603
:1046F000504655434243380C814662444A445B4429
:10470000944503D9802040028446654403983F04C1
:10471000834604983F0C8446E344C34580414042AD
:104720008246100484460198674484466744A34443
:10473000BC46A345A4419946D44464428742BF4144
:10474000D4458041E144A04699459B417F42404287
:10475000C8440743120CBA18A045A4415F423B006D
:1047600064422343D71843467D19DB0D6D021D4378
:104770005B465A02059B1A43531E9A415B46DB0D6A
:104780001A4343465B021343EA0107D501225C0842
:1047900013402343EA07029E13436D08574AB21899
:1047A000002A4BDD580709D00F201840042805D0F7
:1047B000181D98429B415B42ED180300E80104D5A7
:1047C0004F4A15408022D200B2184E48824200DD86
:1047D000E7E60124DB08680718436D0253058046AD
:1047E0002D0B5B0D0C407DE68022594612031142D1
:1047F00008D0154206D115432D0398462D0B4C4683
:10480000414B6FE65D4615432D032D0B3E4B69E68C
:1048100003005546283B9D400023BCE6504600F06F
:1048200099FC2030A8E60300283B9F400023BB46AC
:10483000984689E600F08EFC203073E60124A61A23
:10484000382E07DD00220C4000230025904649E663
:10485000029EA3E71F2E20DC20222C001800921BB2
:10486000F040944093400443581E83411C43F5405C
:10487000630709D00F232340042B05D023001C1D00
:104880009C4292415242AD182B021FD501240022B6
:104890000C4001230025904624E61F202C004042B6
:1048A000821AD440202E1CD04022961BB5402B43A8
:1048B000581E83410720234318400025002809D0B3
:1048C0000F2200251A401C00042AD8D123006807B3
:1048D0006D022D0B0124DB08034398460C40002396
:1048E00000E60025E3E780220124120315432D038F
:1048F00098462D0B0C40044BF4E5C046FF03000026
:10490000FFFFFFFEFE070000FF070000F0B557465F
:104910004E464546E0B40E001100F20F9246C50027
:10492000420F180337037400400A4E0F7F0A3043CA
:10493000CF4E17435A00640D520DDB0FC900B2422F
:1049400000D1E5E001267340A61AB446534500D1D4
:10495000AFE0002E00DC0DE1002A3AD103000B434A
:1049600000D0E4E06B0709D00F232B40042B05D0C7
:104970002B1DAB42AD416D427F191D003B0200D49F
:1049800088E0BB4B01349C4200D110E13A00B94BA6
:1049900051461A4001235007ED08520264050543B1
:1049A000120B640D0B400021280012030D0D120B99
:1049B00064052D0515436208AF4CDB072C401443FA
:1049C000640064081C4321001CBC90469946A24622
:1049D000F0BDA74B9C42C5D080231B0418436346FF
:1049E000382B00DDFDE01F2B00DD30E16246202387
:1049F0009B1A02009A40664690460A009940F2408F
:104A000046464B1E99413243114363460200DA4049
:104A1000691A8D429B410D00BA1A5B42D71A3B02BC
:104A200035D57A02530A98464346002B00D1C4E09C
:104A3000404600F08FFB0300083B1F2B00DDC5E064
:104A400020222900D21A4746D1409F400A009D40AB
:104A50003A439C4200DDC0E01C1B631C1F2B00DDA1
:104A6000E4E0202114002800C91AD8408C408D4071
:104A70000443DA40681E854117002543002471E78E
:104A8000424663461A4300D14CE2674645466B07EF
:104A900000D069E7012351467807ED08FA080B407A
:104AA000054373498C4238D012036405120B640D20
:104AB00079E7002E00DC9AE0002A47D06C4A944245
:104AC00000D14FE78022120410436246382A00DCEE
:104AD00008E10143481E81410022C9B24919D21997
:104AE000A942BF410D007F42BF183A0200D442E103
:104AF0005F4A0134944200D14EE101205D4A6908C9
:104B00003A4028400843D507054357089A4629E705
:104B100006000E4300D017E714E72900114300D127
:104B2000F9E1802109030A431203120B3BE7012339
:104B30005B429846C4446346002B72D1691A8D4289
:104B40009B413F1A5B42FF1A0D0068E702000A43CF
:104B500000D107E7012252429046C4446246002A2F
:104B600000D0E6E06918A942B6413F187642F7192D
:104B70000D00BAE7002E00D080E0621C5205520DF5
:104B8000012A00DCF9E06A1A91464D45B6413A1A0D
:104B90007642921B9046120200D499E04D1BA94226
:104BA0008941C71B49427A1A90469A463CE75246C9
:104BB0000123002513400022F5E6280000F0CAFA80
:104BC00020300300083B1F2B00DC39E72A0028387F
:104BD000824000259C4200DC3EE7264FE41A174045
:104BE000C0E60143481E81410022C9B210E7002EF1
:104BF00000D0F1E0621C94465205520D012A00DCFF
:104C0000A0E01B4A944500D1C5E06918A942924131
:104C10003F185242D2194908D5070D435708644638
:104C2000A0E6134B9C4200D0D9E69BE611001F3C46
:104C3000E1400C00202B00D180E04021CB1A9A40AB
:104C400015436A1E95410027254300241FE763464C
:104C50000200203BDA406346202B71D04023664699
:104C60009B1B98400143481E814111430022CFE61F
:104C7000FF070000FFFF7FFFFFFF0F80002C48D0E1
:104C8000CA4CA24200D1A2E07442A146802424046E
:104C900027434C46382C00DDDBE01F2C00DD44E1CF
:104CA0004E462024A41B3E00A640A246B0464C46D9
:104CB0002E00E640B4464646644626435446A54088
:104CC0006C1EA54134002C434D46EF400D1B28E0DF
:104CD0004A4643464D461A4300D0A5E60023002429
:104CE0000025DEE61F2A5ADC66462022921B0600BB
:104CF00096409146B04662460E00D6404246164364
:104D00004A4691404A1E9141020060463143C240EA
:104D1000E4E63C002C435AD0F443A146002C52D187
:104D20004D1BA9428941C71B49427F1A14009A466C
:104D300075E69E4A944200D0C7E613E600227FE75C
:104D400000208FE7002C00D0C8E03B002B4300D1AF
:104D50000FE103000B4300D104E66918A9429B410F
:104D60003F185B42DF193B0200D41AE1904B0D0063
:104D70001F406446F6E59A4689E63A002A43002C2D
:104D80005CD1002A75D102000A4300D1CAE00700B5
:104D90000D009A46E6E564460022002581E662465B
:104DA0000600203AD6406246B046202A00D1B7E03D
:104DB00040226646921B904001434246481E814174
:104DC000114300228AE6794CA24200D061E7070035
:104DD0000D0014009A46C5E5002C41D13C002C433F
:104DE00078D0F443A146002C20D0704CA24271D060
:104DF0004C46382C00DDB2E01F2C00DDBCE0202644
:104E0000341BA2463C005646B4404E46A0462C00F9
:104E1000F440A446444666463443A4465446A5405E
:104E200064466E1EB54125434C46E7406D188D42E1
:104E300089413F184942CF19140056E6002A2FD164
:104E400002000A4300D184E007000D009A46574C47
:104E500088E53D436F1EBD41ECB200270D1B60E7A6
:104E6000524CA24236D0744280263604A1463743C3
:104E7000BEE702000A4300D174E56A1A9046454530
:104E8000B6413A1A7642921B9446120200D4F7E5D4
:104E90004D1BA9428941C71B49427F1A9A4661E5C9
:104EA00002000A433AD0ED087C072C438025FA081B
:104EB0002D032A4208D0C7082F4205D145072C00F0
:104EC0003A009A46C9080C43670FD200E500174321
:104ED000364C47E507000D00140043E53A002A432D
:104EE00043D002000A4319D0ED087C072C438025EB
:104EF000FA082D032A4207D0C6082E4204D14707DC
:104F00003C003200C9080C43D700620FE50017438C
:104F10009A46264C26E50022002544E5234C21E54F
:104F2000002049E700230025BBE54C463E00203C1D
:104F3000E6404C46B446202C31D040244E46A61BB9
:104F4000B7403D436C1EA54164462C4300270D1B12
:104F5000E7E6802200231203144C0025A1E53D431F
:104F60006F1EBD410027EDB260E707000D000F4C3A
:104F7000F8E407000D00F5E44E463C00203EF44006
:104F8000A0464C46202C0ED040244E46A41BA740E1
:104F90003D436F1EBD4144460027254346E7002799
:104FA000CFE70D0073E50027F2E7C046FF070000DA
:104FB000FFFF7FFF70B50E4E0C031D0349005B0021
:104FC000240B490D2D0B5B0DB14204D00849002084
:104FD0008B4208D070BD04430120002CFAD1044953
:104FE00000208B42F6D115432800451EA841F1E769
:104FF000FF0700000B0330B5134D1A0B4B005B0D80
:10500000C90F0024AB4211DD104CA34210DC8024F8
:10501000640322430E4CE41A1F2C0CDD0D48C31A06
:10502000DA4013005C42002900D11C00200030BD92
:10503000094BCC18FAE7E040084CA44663449A4078
:1050400013000343EEE7C046FE0300001D0400000A
:105050003304000013040000FFFFFF7FEDFBFFFFA0
:1050600070B5002830D0C317C4185C40C50F2000AD
:1050700000F070F8174B184A1B1AD21A1F2A18DDB5
:10508000164AD21A9440002224035B05240B5B0DC0
:105090000021100024030A0D1205240B1443104AAA
:1050A0001B0514401C436400ED0764082C432100D9
:1050B00070BD210091400A000B21081AC4405B0515
:1050C0002403240B5B0DE3E70025002300240022CA
:1050D000DEE7C0461E040000330400001304000095
:1050E000FFFF0F8070B5051E28D000F033F8154B78
:1050F000154A1B1AD21A1F2A16DD2C00134A002546
:10510000D21A94405A052403240B520D0021240383
:105110000B0D240B1B0523430D4C12052340134399
:105120005B002800590870BD0B212C00081AC440F0
:10513000954024035A05240B520DE7E70022002472
:10514000E4E7C0461E04000033040000130400001E
:10515000FFFF0F801C2101231B04984201D3000C88
:1051600010391B0A984201D3000A08391B099842DA
:1051700001D30009043902A2105C40187047C046F0
:105180000403020201010101000000000000000010
:105190002E2E2F73797374656D2F7372632F737452
:1051A0006D333266302D68616C2F73746D333266E7
:1051B0003078785F68616C5F636F727465782E63B6
:1051C000000000002E2E2F73797374656D2F73729B
:1051D000632F73746D333266302D68616C2F737476
:1051E0006D3332663078785F68616C5F7370692EFA
:1051F00063000000537461636B206672616D653AF1
:105200000A000000205230203D2020253038580A66
:1052100000000000205231203D2020253038580A5F
:1052200000000000205232203D2020253038580A4E
:1052300000000000205233203D2020253038580A3D
:105240000000000020523132203D20253038580A1D
:1052500000000000204C52203D2020253038580A04
:1052600000000000205043203D2020253038580AFF
:105270000000000020505352203D20253038580AAD
:10528000000000004D6973630A000000204C522F9B
:105290004558435F52455455524E3D2025303858AD
:1052A0000A0000005B486172644661756C745D0AB7
:1052B00000000000000000000000000001020304E4
:1052C0000607080957726F6E6720706172616D651D
:1052D000746572732076616C75653A2066696C65D9
:1052E000202573206F6E206C696E652025640D0A81
:1052F00000000000523A20253575204F686D73007C
:10530000463A2025357520487A0000000A43686136
:105310007220696E20627566666572206973202A44
:1053200025752A20617420706F7320252A642A0A4B
:10533000000000000A4D414445204954205041538B
:10534000542053595354454D434C4F434B20494EE1
:1053500049540A000A4D41444520495420504153C4
:10536000542054494D33434F4E4649470A000000EC
:105370000A4D4144452049542050415354204F4C3C
:10538000454420434F4E4649470A00000A465245CD
:105390005155454E43592049533A2025640A00008F
:1053A0000A524553495354414E43452049533A20EC
:1053B00025640A00494E4600696E66004E414E0063
:1053C0006E616E0030003031323334353637383963
:1053D0004142434445460030313233343536373864
:1053E0003961626364656600496E66696E697479E5
:1053F000004E614E00000000000000000000F03F81
:10540000000000000000244000000000000059409F
:105410000000000000408F40000000000088C340F2
:1054200000000000006AF8400000000080842E4167
:1054300000000000D01263410000000084D79741B3
:105440000000000065CDCD41000000205FA00242B9
:10545000000000E876483742000000A2941A6D422E
:10546000000040E59C30A2420000901EC4BCD64221
:1054700000003426F56B0C430080E03779C34143CC
:1054800000A0D8855734764300C84E676DC1AB4342
:10549000003D9160E458E143408CB5781DAF154460
:1054A00050EFE2D6E41A4B4492D54D06CFF080443B
:1054B000F64AE1C7022DB544B49DD9794378EA4450
:1054C0000080E03779C34143176E05B5B5B8934600
:1054D000F5F93FE9034F384D321D30F94877825ACC
:1054E0003CBF737FDD4F15750500000019000000FB
:1054F0007D000000232D302B2000686C4C00656679
:1055000067454647004300504F534958002E00005E
:105510002020202020202020202828282828202063
:10552000202020202020202020202020202020207B
:1055300088101010101010101010101010101010F3
:1055400004040404040404040404101010101010D3
:1055500010414141414141010101010101010101AC
:1055600001010101010101010101011010101010E0
:10557000104242424242420202020202020202027D
:1055800002020202020202020202021010101020A5
:10559000000000000000000000000000000000000B
:1055A00000000000000000000000000000000000FB
:1055B00000000000000000000000000000000000EB
:1055C00000000000000000000000000000000000DB
:1055D00000000000000000000000000000000000CB
:1055E00000000000000000000000000000000000BB
:1055F00000000000000000000000000000000000AB
:10560000000000000000000000000000000000009A
:10561000C03D00088E3C0008943D0008843C000812
:10562000943D00089E3D0008943D0008843C00081D
:105630008E3C00088E3C00089E3D0008843C00081B
:105640007A3C00087A3C00087A3C0008F03F0008E9
:1056500008460008C8440008C8440008C6440008BA
:10566000E0450008E0450008D2450008C6440008AF
:10567000E0450008D2450008E0450008C64400089F
:10568000E8450008E8450008E8450008E847000844
:10569000785634120400000001FFFFFF14060020BA
:1056A0000000000000127A0000000000000000006E
:1056B00000000000000000000000000000000000EA
:1056C00000000000000000000000000000000000DA
:1056D00000000000000000000000000000000000CA
:1056E00000000000000000000000000000000000BA
:1056F00000000000000000000000000000000000AA
:105700000000000000000000000000000000000099
:105710000000000000000000000000000000000089
:105720000000000000000000000000000000000079
:105730000000000000000000000000000000000069
:105740000000000000000000000000000000000059
:105750000000000000000000000000000000000049
:105760000000000000000000000000000000000039
:105770000000000000000000000000000000000029
:105780000000000000000000000000000000000019
:105790000000000000000000000000000000000009
:1057A00000000000000000000000000000000000F9
:1057B00000005F000000000000070007000000007C
:1057C000147F147F14000000242A7F2A1200000096
:1057D000231308646200000036495522500000007F
:1057E0000005030000000000001C22410000000032
:1057F0000041221C0000000014083E0814000000B4
:1058000008083E08080000000050300000000000BA
:1058100008080808080000000060600000000000A0
:1058200020100804020000003E5149453E000000DF
:1058300000427F40000000004261514946000000E4
:105840002141454B310000001814127F1000000068
:1058500027454545390000003C4A494930000000D1
:10586000030171090700000036494949360000006C
:10587000064949291E0000000036360000000000DD
:10588000005636000000000008142241000000000D
:105890001414141414000000004122140800000025
:1058A0000201510906000000324979413E00000022
:1058B0007E1111117E0000007F4949493600000029
:1058C0003E414141220000007F4141221C00000076
:1058D0007F494949410000007F0909090100000092
:1058E0003E4149497A0000007F0808087F00000017
:1058F00040417F41400000002040413F0100000046
:105900007F081422410000007F404040400000001A
:105910007F020C027F0000007F0408107F0000005F
:105920003E4141413E0000007F0909090600000098
:105930003E4151215E0000007F0919294600000008
:10594000464949493100000001017F010100000082
:105950003F4040403F0000001F2040201F0000004B
:105960003F4038403F00000063140814630000000B
:105970000708700807000000615149454300000016
:105980007F4100000000000015167C161500000085
:10599000000000417F00000004020102040000003A
:1059A00040404040400000000001020400000000B0
:1059B00020545454780000007F48444438000000CC
:1059C0003844444420000000384444487F0000002C
:1059D0003854545418000000087E090102000000E9
:1059E0000C5252523E0000007F0804047800000070
:1059F00000447D40000000002040443D00000000C5
:105A00007F1028440000000000417F40000000009B
:105A10007C041804780000007C080404780000006E
:105A200038444444380000007C141414080000007A
:105A3000081414187C0000007C080404080000000E
:105A40004854545420000000043F4440200000000B
:105A50003C4040207C0000001C2040201C00000036
:105A60003C4038403C00000044281028440000001E
:105A70000C5050503C0000004464544C4400000062
:105A8000000836410000000000007F000000000018
:105A9000004136080000000008082A1C0800000029
:105AA000081C2A0808000000AE200040A1A83FC83A
:105AB000D300DA32D580D922DB3081FFA4A6AD3005
:105AC0008D10AFC0A0FFFFFF00000000000000002D
