:020000040800F2
:1000000000200020D5010008DD010008E101000802
:1000100000000000000000000000000000000000E0
:1000200000000000000000000000000015020008B1
:100030000000000000000000190200081D02000876
:1000400025020008250200082502000825020008F4
:1000500025020008250200082502000825020008E4
:1000600025020008250200082502000825020008D4
:1000700025020008250200082502000825020008C4
:1000800025020008250200080000000025020008E3
:1000900025020008250200082502000825020008A4
:1000A0002502000825020008250200082502000894
:1000B00025020008000000002502000830B583B0CA
:1000C00000F0AEFD314B324A1360324A1360324BBE
:1000D000324A03E0116819600433043230498B421C
:1000E000F8D32B4B1A682F4B9A4204D1294B1A682C
:1000F0002D4B9A4200D0FEE7244B2C4A13602C4A29
:1001000013602C4B02E000221A6004332A4A934207
:10011000F9D3264B1B68002B03D1254B1B68002B02
:1001200000D0FEE700F0D8FD694601A800F0DEFC33
:10013000224C234B1C1BA410002504E0AA001F4BDB
:10014000D35898470135AC42F8DC1E4C1E4B1C1BA3
:10015000A410002504E0AA001A4BD3589847013593
:10016000AC42F8DC0099019800F00CFF0500174C38
:10017000174B1C1BA41004E0013CA200134BD358E6
:100180009847002CF8DC280000F08CFCBABADECAD4
:10019000000000209C04002000000020781B0008C4
:1001A000A00400207856341232547698A00400201F
:1001B000A8050020A0040020AC0500205002000883
:1001C00050020008500200085002000850020008C7
:1001D0005002000810B5FFF771FFC04600BEFEE7F1
:1001E00004207146084202D0EFF3098001E0EFF3EA
:1001F000088071460A4A104770B504000D00044893
:1002000000F0B4FC2900200000F0C6FC00BEFEE7B0
:10021000DC1A000800BEFEE700BEFEE770470000E3
:08022000F901000800BEFEE731
:10022800781B000800000020A0040020781B0008AC
:100238000000000000000000A0040020AC05002021
:080248000000000000000000AE
:1002500010B504000E4B1978FA20800000F0ACFEB7
:1002600001000C4B186800F0A7FE00F07DF8002894
:100270000AD1032C0AD800222100013800F036F8F8
:10028000054B1C60002002E0012000E0012010BDB1
:1002900008000020140000200400002010B5064AC9
:1002A000116810230B4313600320FFF7D1FF00F008
:1002B00081FE002010BDC04600200240014B18689E
:1002C0007047C0463C05002070B50400FFF7F6FFFC
:1002D0000500631C02D0044B1B78E418FFF7EEFF07
:1002E000401B8442FAD870BD0800002070B505009C
:1002F0000C00032903D98B21184800F0F5FC002DD0
:1003000012DBAA081648C0329200115803231D4080
:10031000ED00FF263300AB409943A30134001C409D
:10032000AC400C43145017E0EDB20F222A40083ABB
:100330009208063292000B4B9C466244516803239C
:100340001D40ED00FF200300AB409943A30118407E
:100350000400AC400C43546070BDC046C81900088E
:1003600000E100E000ED00E001380A4B98420FD8B0
:10037000094A506009490B6A1B021B0AC02000068B
:1003800003430B620023936007331360002000E0F7
:1003900001207047FFFFFF0010E000E000ED00E0EB
:1003A00010B50400042806D0002804D02621FF310F
:1003B000084800F099FC042C05D1074A1168042371
:1003C0000B43136004E0044A136804218B43136059
:1003D00010BDC046C819000810E000E0014B1868C5
:1003E0007047C04614000020F8B505000F00160045
:1003F0001C0039E0631C37D0FFF760FF069BC01A72
:10040000844201D9002C2FD12A685368E0218B4304
:10041000536082235B006A689A420DD1AB688022E8
:100420001202934203D08022D200934204D12A6860
:10043000136840218B43136080239B01AA6A9A4270
:100440000AD12A6811680E4B0B4013602A681368A2
:10045000802189010B43136001225D23EA540022AD
:10046000013BEA54032009E02B689B683A009A4359
:10047000130059425941B142BCD10020F8BDC046D9
:10048000FFDFFFFFF8B507000C0015001E0040E07D
:10049000C023DB009C4202D1002D00D1137B731CD2
:1004A00037D0FFF70BFF069BC01A864201D9002EFA
:1004B0002FD13A685368E0218B43536082235B005D
:1004C0007A689A420DD1BB6880221202934203D00F
:1004D0008022D200934204D13A68136840218B43B2
:1004E000136080239B01BA6A9A420AD13A68116864
:1004F0000B4B0B4013603A681368802189010B4352
:10050000136001225D23FA540022013BFA540320B8
:1005100005E03A6893682340AB42B9D10020F8BDAA
:10052000FFDFFFFF70B582B004000D0016000092DF
:100530000B000022C0214901FFF7A4FF002805D0CD
:10054000226E20231343236603201DE000962B0018
:10055000002280212000FFF747FF002805D0226EEF
:1005600020231343236603200EE000962B00002275
:10057000C021C9002000FFF785FF002804D0226EAB
:10058000202313432366032002B070BD7047C0468A
:1005900070B5041E00D14DE10368A74A934207D00D
:1005A000A64A934204D0A8214900A54800F09CFB2C
:1005B0006368002B08D082225200934204D052215B
:1005C000FF319F4800F090FBA368002B0CD08022E5
:1005D000D200934208D080221202934204D0A92173
:1005E0004900974800F080FBE368F0221201934233
:1005F00034D0013AFF3A934230D0013AFF3A934265
:100600002CD0013AFF3A934228D0013AFF3A934264
:1006100024D0013AFF3A934220D0013AFF3A934264
:100620001CD0013AFF3A934218D0013AFF3A934264
:1006300014D0013AFF3A934210D0013AFF3A934264
:100640000CD0013AFF3A934208D0013AFF3A934264
:1006500004D05421FF317A4800F046FBA369802280
:10066000920093420AD0002B08D08022D2029342FB
:1006700004D0AA214900724800F036FB636B082BB6
:1006800006D0002B04D05621FF316D4800F02CFB22
:10069000E369002B12D0082B10D0102B0ED0182B92
:1006A0000CD0202B0AD0282B08D0302B06D0382B8A
:1006B00004D0AB214900624800F016FB236A002BEE
:1006C00006D0802B04D05821FF315D4800F00CFB90
:1006D000636A002B06D0102B04D0AC214900584887
:1006E00000F002FB636A002B11D12369002B06D0B6
:1006F000022B04D05C21FF31514800F0F5FA636908
:10070000012B04D9AE2149004D4800F0EDFAA36A4F
:10071000002B08D080229201934204D06021FF3147
:10072000474800F0E1FA80239B01A26A9A4213D164
:10073000E36A591E434A914201D8DB0704D4B12130
:1007400049003F4800F0D0FA236B022B04D9642102
:10075000FF313B4800F0C8FA5D23E35C002B05D174
:1007600000225C33E2542000FFF710FF02225D23D9
:10077000E2542268136840218B431360E268E0234F
:10078000DB009A4201D9002001E080204001F023E3
:100790001B019A4205D0E023DB009A4201D00023DE
:1007A000A362236B002B08D1E023DB009A4202D91D
:1007B0000223236301E00123236323686268A168A5
:1007C0000A4321690A4361690A4380218900A569B6
:1007D00029400A43E1690A43216A0A43A16A0A439C
:1007E0001A60236B022B05D122681368802109014E
:1007F0000B4313602168628B04231340626A134326
:10080000626B1343E268134303434B6080239B01F5
:10081000A26A9A4202D12368E26A1A612268D16907
:10082000094B0B40D3610023236601225D33E25460
:10083000002000E0012070BD003001400038004081
:10084000FC190008FEFF0000FFF7FFFFF0B585B0C0
:1008500004000F0016001D00E023DB00C2689A426E
:1008600001D8012E06D9FB0704D5CB2189008B487E
:1008700000F03AFAA368002B08D0802212029342BB
:1008800004D0CC218900854800F02EFA5C23E35C7B
:10089000012B00D1FEE001225C23E254FFF70EFDA4
:1008A00001905D23E35C012B00D0DDE0002F00D13F
:1008B000DCE0002E00D1DBE003225C33E2540023B5
:1008C0002366A763A687E68723644132A3520232D8
:1008D000A3522365E36480231B02A2689A4205D1D8
:1008E000226813688021C9010B43136080239B0198
:1008F000A26A9A420AD122681168694B0B401360C0
:1009000022681368802189010B43136023681A68E9
:10091000520603D4196840220A431A60E023DB0020
:10092000E2689A4230D96368002B01D0012E26D1AB
:100930002368A26B1288DA60A36B0233A363E38F90
:10094000013B9BB2E3871AE023689A6892070AD5B5
:10095000A26B1288DA60A36B0233A363E38F013BBF
:100960009BB2E3870BE0FFF7A9FC019BC01AA842EA
:1009700002D36B1C00D07DE0002D00D17CE0E38F22
:100980009BB2002BE0D14CE06368002B01D0012E1C
:1009900043D1E38F9BB2012B0BD92368A26B128842
:1009A000DA60A36B0233A363E38F023B9BB2E3875E
:1009B00033E0A36B1B7822681373A36B0133A3632B
:1009C000E38F013B9BB2E38727E0226893689B0794
:1009D00019D5E38F9BB2012B0AD9A36B1B88D36077
:1009E000A36B0233A363E38F023B9BB2E38714E064
:1009F000A36B1B781373A36B0133A363E38F013BDA
:100A00009BB2E38709E0FFF759FC019BC01A8542BE
:100A100001D86B1C32D1002D32D0E38F9BB2002B5A
:100A2000D3D180239B01A26A9A4205D12268136820
:100A3000802149010B431360019A29002000FFF730
:100A400071FD002801D020232366A368002B06D166
:100A500003932368DA6803929B680393039B236ED6
:100A6000002B0FD100200EE002200CE001200AE054
:100A7000012008E0032006E0032004E0032002E058
:100A8000032000E0012001225D23E2540022013B0B
:100A9000E25400E0022005B0F0BDC046FC19000899
:100AA000FFDFFFFFFEE7C04610B503000C4A1268E7
:100AB000002A02D10B490A4A1160094A106803331F
:100AC00003229343C318084A934206D900F000FB5F
:100AD0000C2303600120404201E0014A136010BD75
:100AE000A4040020AC050020001C002001230360AA
:100AF000014B0B607047C0460C000020F0B54F461C
:100B00004646C0B487B0040001914356002B1FD164
:100B10000426301C211CABBE041C1CE03E00102F20
:100B200000D91026002305E00022A25602A9CA54CB
:100B300001330134B342F7D302AA91460022494659
:100B4000CA540425281C4946ABBE8046BF1B00E0A2
:100B5000019F002FE2D1019807B00CBC9046994646
:100B6000F0BDC04610B5FFF7C9FF10BD0FB400B50A
:100B700083B004AB04CB01938021064800F016FB40
:100B8000002803DD01000348FFF7ECFF03B008BCB9
:100B900004B01847AC04002070B504000D001548DF
:100BA000FFF7E4FF21681448FFF7E0FF616813488E
:100BB000FFF7DCFFA1681248FFF7D8FFE168114892
:100BC000FFF7D4FF21691048FFF7D0FF61690F4894
:100BD000FFF7CCFFA1690E48FFF7C8FFE1690D4898
:100BE000FFF7C4FF0C48FFF7C1FF29000B48FFF7D0
:100BF000BDFF70BD2C1A00083C1A00084C1A0008F2
:100C00005C1A00086C1A00087C1A00088C1A00088C
:100C10009C1A0008AC1A0008BC1A0008C41A000884
:100C200010B500F001F810BD7047C04610B51E4B5E
:100C30005B680C221340042B07D0082B09D0002B33
:100C400022D11A4A1A4B1A6021E0184A184B1A602E
:100C50001DE0154B5C685A68802040020240A40CDD
:100C60000F210C400234DB6A19400131824206D167
:100C70000E4800F0A1F944430D4B1C6007E00D48FD
:100C800044430B4B1C6002E0084A094B1A60064BB8
:100C90005B681B090F221340074AD35C044A1168A2
:100CA000D940116010BDC0460010024000127A0009
:100CB0001400002000093D00EC1A000810B5FFF7F1
:100CC0008DFBFA21890000F077F9FFF74DFB042036
:100CD000FFF766FB10BDC04610B5FFF7DFFAFFF760
:100CE000EDFFFFF7A3FF10BD10B50A000100024899
:100CF000FFF73CFFFEE7C046FC1A000810B5104A9B
:100D00001168104B0B4013600D4B1B689B01FBD40B
:100D10000B4BA02292035A601A68802149040A43AF
:100D20001A60074B1B689B01FBD505494B680322E2
:100D30009343013A13434B60FFF778FF10BDC04661
:100D400000100240FFFFFFFE00B583B06B46D87174
:100D5000084B9B689B07FBD501235B420122694638
:100D600007310548FFF772FD024B9B689B07FBD5D7
:100D700003B000BD003001404405002070B5064CB2
:100D80004025A56180231B04A3618023DB03A361AD
:100D9000FFF7DAFFA56170BD0004004870B5064C8E
:100DA0004025A5618023A3618023DB03A361FFF7B6
:100DB000CBFFA56170BDC0460004004870B586B089
:100DC000284B1B68284A112101A800F091F9B22094
:100DD000FFF7D4FF0320FFF7D1FF0020FFF7CEFF7E
:100DE00000260BE0EB00214AD318185DFFF7D6FF71
:100DF000013400E00024072CF4DD0136102E03D866
:100E000001AB9D5D002DF5D1194B1B68194A1121CD
:100E100001A800F06DF9B320FFF7B0FF0320FFF742
:100E2000ADFF0020FFF7AAFF00260BE0EB000F4A02
:100E3000D318185DFFF7B2FF013400E00024072C3F
:100E4000F4DD0136102E03D801AB9D5D002DF5D1E8
:100E50000022094B5A62084B5B6A632BFBD906B030
:100E600070BDC046300500202C1B00081800002073
:100E70002C050020381B00080004004070B5314BE1
:100E80005A698021C9020A435A612F4D2A68882174
:100E900009010A432A602A6A2A622A68A021C90134
:100EA0000A432A609A69802149010A439A61274CC2
:100EB000274B236080231B02A36082235B006360B7
:100EC000E023DB00E3600023236163618022920062
:100ED000A261C93AFF3AE26123620733E36220006C
:100EE000FFF756FB2268116840230B431360102460
:100EF000AC620A20FFF7E8F9AC610A20FFF7E4F9D9
:100F0000002404E0134B185DFFF738FF01341C2C5C
:100F1000F8D9002513E028005038C0B2FFF72EFFA3
:100F20000020FFF72BFF1020FFF728FF002403E02D
:100F30000020FFF733FF01347F2CF9D90135072D4D
:100F4000E9D970BD001002400004004844050020AB
:100F50000030014018040020074AD16902230B43E6
:100F6000D361064B064A9A626322DA621968623AD2
:100F70000A431A607047C046001002400004004057
:100F80007FBB000010B5FFF7B9FEFFF7E5FFFFF7E5
:100F900075FF6422054B1A60FA229200044B1A6016
:100FA000FFF70CFF6420FFF78FF9F2E72C05002014
:100FB000300500207047C046002243088B4274D39E
:100FC00003098B425FD3030A8B4244D3030B8B424A
:100FD00028D3030C8B420DD3FF22090212BA030C53
:100FE0008B4202D31212090265D0030B8B4219D334
:100FF00000E0090AC30B8B4201D3CB03C01A524154
:10100000830B8B4201D38B03C01A5241430B8B429B
:1010100001D34B03C01A5241030B8B4201D30B0384
:10102000C01A5241C30A8B4201D3CB02C01A5241AB
:10103000830A8B4201D38B02C01A5241430A8B426E
:1010400001D34B02C01A5241030A8B4201D30B0257
:10105000C01A5241CDD2C3098B4201D3CB01C01A71
:10106000524183098B4201D38B01C01A524143097B
:101070008B4201D34B01C01A524103098B4201D369
:101080000B01C01A5241C3088B4201D3CB00C01AD6
:10109000524183088B4201D38B00C01A524143084E
:1010A0008B4201D34B00C01A5241411A00D2014673
:1010B000524110467047FFE701B5002000F006F8E6
:1010C00002BDC0460029F7D076E770477047C0469A
:1010D000014B18687047C04698040020002310B5E3
:1010E0009A4203D0CC5CC4540133F9E710BD000030
:1010F0000CB430B5164B9DB00C1E1D6804DA8B2362
:1011000001202B6040421DE0822302A99B008B81BD
:101110000023029008619C4200D0631E8B604B61EB
:1011200001235B42CB81209A21AB2800019300F080
:10113000ABF8431C01DA8B232B60002C02D0002378
:10114000029A13701DB030BC08BC02B01847C046EC
:101150009804002030B514009BB005001A00002C44
:1011600004DA8B230360012040421CE0822368469E
:101170009B0083810023009104919C4200D0631E58
:1011800002930593012369465B42CB8128001E9B95
:1011900000F07AF8431C01DA8B232B60002C02D07C
:1011A0000023009A13701BB030BD000007B50093F8
:1011B00013000A00010002480068FFF7CBFF0EBDD4
:1011C00098040020F0B58E6885B007000C000392EB
:1011D00001939E4243D890238A89DB001A423ED075
:1011E00003250969236801985B1A029363695D43CB
:1011F000EB0F5D19029B6D1001331B18AB4200D938
:101200001D00530510D52900380000F037FB061EDD
:1012100014D0029A2169FFF761FFA289194B13408C
:1012200080221343A38112E02A00380000F086FBDD
:10123000061E0CD12169380000F0D4FA0C2340229C
:1012400001203B60A38940421343A38117E0029B26
:101250002661F61826606561019EED1AA560019B66
:10126000B34200D21E0032000399206800F0A5FAB4
:101270000020A3689B1BA36023689E19266005B00D
:10128000F0BDC0467FFBFFFFF0B59FB00290059315
:101290008B890F0016001B0610D50B69002B0DD192
:1012A000402100F0EBFA38603861002804D10C23AB
:1012B000029A01381360D8E040237B61002306AD19
:1012C0006B6120336B761033AB7634002378002BC0
:1012D00003D1A31B049312D003E0252BF9D00134D2
:1012E000F4E7A31B320039000298FFF76BFF431CA1
:1012F00000D1B4E06A69049B944663446B6123782F
:10130000002B00D1ABE00122002352426A6002A907
:101310005432521801342B60EB60AB601370AB6534
:10132000534E21780522300000F03CFA002807D007
:101330000123801B83402A68013413432B60EFE7AD
:101340002B68DA0604D55322202102A81218117046
:101350001A0704D553222B2102A8121811702278E3
:101360002A2A03D0099B00200A210EE0059A111DAC
:1013700012680591002A01DB099204E05242EA60FA
:10138000022213432B6001340BE02278303A092A01
:1013900004D84B4301349B180120F6E7002800D005
:1013A000099323782E2B1ED163782A2B0AD1059B13
:1013B00002341A1D1B680592002B01DA01235B42DF
:1013C000079310E000230A201A0001346B60217893
:1013D0003039092904D84243013452180123F6E771
:1013E000002B00D00792234E21780322300000F01A
:1013F000D9F9002806D04023801B83402A68013495
:1014000013432B60217806221B48661C297600F0C6
:10141000C9F9002812D0194B002B06D10722059BD1
:10142000073393430833059314E005AB00933A0068
:10143000134B2900029800E000BF07E005AB0093C2
:101440003A000F4B2900029800F08AF80390039BA2
:10145000013304D06B69039A9B186B6135E7BB8934
:101460000B985B0601D5012040421FB0F0BDC0467D
:10147000441B00084A1B00084E1B00080000000027
:10148000C5110008F7B5170001938A680B69009031
:101490000C00934200DA130022003B6043321278C2
:1014A000002A01D001333B6023689B0602D53B68CC
:1014B00002333B60062523681D401ED023004333C2
:1014C0001B785A1E9341226892061CD53020E118E1
:1014D0004331087021005A1C45310978A218433263
:1014E000023311700FE02200012319320199009894
:1014F000089EB047431C0ED00135E3683A689B1A3A
:101500009D42F0DBDAE72200019943320098089D02
:10151000A847431C02D10120404220E00623206856
:10152000E1683A6803400025042B03D18D1AEB4390
:10153000DB171D40A3682269934201DD9B1AED1859
:101540000027BD420AD0220001231A3201990098D7
:10155000089EB047431CDED00137F2E70020FEBDF5
:10156000F0B58BB006920A004332079305900492BF
:101570000A7E0C00109B6E2A00D1ABE011D8632AC2
:1015800022D009D8002A00D1B5E0582A00D0C5E001
:1015900045310A70814A4FE0642A1DD0692A1BD068
:1015A000BCE0732A00D1AAE009D86F2A29D0702A9A
:1015B00000D0B3E0202209680A43226037E0752A90
:1015C0001FD0782A33D0A9E00E001A684236111DC8
:1015D000196013683370A4E021681A68080606D4FD
:1015E000490604D5111D19600023D55E02E0111DC6
:1015F00019601568002D3BDA2D23049A6D42137093
:1016000036E021681A68080606D4490604D515682C
:10161000111D1960ADB202E0111D196015685F4B14
:10162000227E039308276F2A1DD00A271BE0220081
:101630007821453211705A4A19680392081D2268B0
:1016400018600D68100602D4500600D5ADB2D3075D
:1016500002D520231A4322601027002D03D1202316
:1016600022689A4322602300002243331A7002E06A
:101670000A274A4B03936368A360002B09DB04220B
:10168000216891432160002D05D1049E002B11D0CB
:101690007BE0002D79D0049E28003900FFF712FD71
:1016A000039B013E5B5C280033703900FFF784FC2C
:1016B000051EF1D1082F09D12368DB0706D5636821
:1016C0002269934202DC3023013E3370049B9B1B52
:1016D00023612BE009681A68080607D4490605D576
:1016E000111D19601368A28A1A8004E0111D196087
:1016F000136862691A600023049E236116E01A6869
:10170000111D1960166800216268300000F04AF867
:10171000002801D0801B6060636803E02600423629
:101720003270012323610023049A1370079B09AAD6
:1017300000932100069B0598FFF7A4FE431C02D1ED
:101740000120404227E02369320006990598079D51
:10175000A847431CF4D0236800259B070FD4099B9E
:10176000E068984217DA180015E0220001231932C8
:1017700006990598079EB047431CE1D00135E36800
:10178000099A9B1A9D42F0DBE9E72600039B42364B
:101790001B7833708EE70BB0F0BDC046551B0008B8
:1017A000661B0008C9B28218904204D003788B42AD
:1017B00002D00130F8E70020704710B5884202D906
:1017C0008B18984201D3002305E09B1A013A08D3F5
:1017D000995C8154FAE7934203D0CC5CC454013342
:1017E000F9E710BD70B50500002944D00C1F23682F
:1017F000002B00DAE418280000F0D8F81E4A13681D
:101800001100002B02D16360146031E0A3420DD9B6
:101810002268A018834203D118685B68821822608E
:1018200063600C6024E0A24203D813005A68002AC7
:10183000F9D11E689819A0420BD121687118581867
:101840001960824214D110685268411819605A60B8
:101850000EE0A04202D90C232B6009E02168601839
:10186000824203D1106852684118216062605C6056
:10187000280000F09CF870BD38050020032370B5E7
:10188000CD1C9D43083506000C2D01D20C2501E02E
:10189000002D01DBA94202D90C23336048E030005F
:1018A00000F084F8234B1C681A002100002913D093
:1018B0000B685B1B0DD40B2B02D90B60CC181EE000
:1018C0008C4202D1636813601AE04B6863600C00BD
:1018D00016E00C004968E9E7174C2368002B03D198
:1018E000300000F051F820602900300000F04CF882
:1018F000431C18D00323C41C9C43A0420DD1256077
:10190000300000F054F8200007220B30231D9043D4
:10191000C31A0ED05A42E2500BE0211A300000F0F8
:1019200033F8431CEBD10C233000336000F03FF858
:10193000002070BD3805002034050020F8B50600F1
:101940000C001500002904D11100FFF797FF0400D7
:1019500018E0002A03D1FFF745FF2C0012E000F049
:1019600027F885420ED929003000FFF787FF071EB0
:1019700007D021002A00FFF7B1FB21003000FFF75C
:1019800031FF3C002000F8BD002370B5064C050077
:1019900008002360FFF788F8431C03D12368002B5D
:1019A00000D02B6070BDC0464005002070477047D6
:1019B0000B1F1A68101F002A04DA891804390B68F3
:1019C000D0180438704700002E2E2F737973746579
:1019D0006D2F7372632F73746D333266302D6861AF
:1019E0006C2F73746D3332663078785F68616C5F2A
:1019F000636F727465782E63000000002E2E2F73C3
:101A0000797374656D2F7372632F73746D333266DF
:101A1000302D68616C2F73746D3332663078785F67
:101A200068616C5F7370692E6300000053746163BA
:101A30006B206672616D653A0A000000205230200A
:101A40003D2020253038580A000000002052312067
:101A50003D2020253038580A000000002052322056
:101A60003D2020253038580A000000002052332045
:101A70003D2020253038580A000000002052313225
:101A8000203D20253038580A00000000204C52200C
:101A90003D2020253038580A000000002050432007
:101AA0003D2020253038580A0000000020505352B5
:101AB000203D20253038580A000000004D6973632E
:101AC0000A000000204C522F4558435F52455455A0
:101AD000524E3D20253038580A0000005B486172A4
:101AE000644661756C745D0A00000000000000002F
:101AF00000000000010203040607080957726F6E18
:101B00006720706172616D65746572732076616CB7
:101B100075653A2066696C65202573206F6E206CB0
:101B2000696E652025640D0A00000000523A2025E8
:101B30003575204F686D7300463A2025357520486D
:101B40007A000000232D302B2000686C4C00656665
:101B500067454647003031323334353637383941FE
:101B60004243444546003031323334353637383914
:071B70006162636465660019
:101B7800785634120400000001FFFFFFA80400207B
:101B88000000000000127A000000000000000000C1
:101B9800000000000000000000000000000000003D
:101BA800000000000000000000000000000000002D
:101BB800000000000000000000000000000000001D
:101BC800000000000000000000000000000000000D
:101BD80000000000000000000000000000000000FD
:101BE80000000000000000000000000000000000ED
:101BF80000000000000000000000000000000000DD
:101C080000000000000000000000000000000000CC
:101C180000000000000000000000000000000000BC
:101C280000000000000000000000000000000000AC
:101C3800000000000000000000000000000000009C
:101C4800000000000000000000000000000000008C
:101C5800000000000000000000000000000000007C
:101C6800000000000000000000000000000000006C
:101C7800000000000000000000000000000000005C
:101C8800000000000000000000000000000000004C
:101C980000005F00000000000007000700000000CF
:101CA800147F147F14000000242A7F2A12000000E9
:101CB80023130864620000003649552250000000D2
:101CC8000005030000000000001C22410000000085
:101CD8000041221C0000000014083E081400000007
:101CE80008083E080800000000503000000000000E
:101CF80008080808080000000060600000000000F4
:101D080020100804020000003E5149453E00000032
:101D180000427F4000000000426151494600000037
:101D28002141454B310000001814127F10000000BB
:101D380027454545390000003C4A49493000000024
:101D480003017109070000003649494936000000BF
:101D5800064949291E000000003636000000000030
:101D68000056360000000000081422410000000060
:101D78001414141414000000004122140800000078
:101D88000201510906000000324979413E00000075
:101D98007E1111117E0000007F494949360000007C
:101DA8003E414141220000007F4141221C000000C9
:101DB8007F494949410000007F09090901000000E5
:101DC8003E4149497A0000007F0808087F0000006A
:101DD80040417F41400000002040413F0100000099
:101DE8007F081422410000007F404040400000006E
:101DF8007F020C027F0000007F0408107F000000B3
:101E08003E4141413E0000007F09090906000000EB
:101E18003E4151215E0000007F091929460000005B
:101E2800464949493100000001017F0101000000D5
:101E38003F4040403F0000001F2040201F0000009E
:101E48003F4038403F00000063140814630000005E
:101E58000708700807000000615149454300000069
:101E68007F4100000000000015167C1615000000D8
:101E7800000000417F00000004020102040000008D
:101E88004040404040000000000102040000000003
:101E980020545454780000007F484444380000001F
:101EA8003844444420000000384444487F0000007F
:101EB8003854545418000000087E0901020000003C
:101EC8000C5252523E0000007F08040478000000C3
:101ED80000447D40000000002040443D0000000018
:101EE8007F1028440000000000417F4000000000EF
:101EF8007C041804780000007C08040478000000C2
:101F080038444444380000007C14141408000000CD
:101F1800081414187C0000007C0804040800000061
:101F28004854545420000000043F4440200000005E
:101F38003C4040207C0000001C2040201C00000089
:101F48003C4038403C000000442810284400000071
:101F58000C5050503C0000004464544C44000000B5
:101F6800000836410000000000007F00000000006B
:101F7800004136080000000008082A1C080000007C
:101F8800081C2A0808000000AE200040A1A83FC88D
:101F9800D300DA32D580D922DB3081FFA4A6AD3058
:101FA8008D10AFC0A0FFFFFF000000000000000080
:101FB8000000000000000000000000000000000019
:101FC8000000000000000000000000000000000009
:101FD80000000000000000000000000000000000F9
:101FE80000000000000000000000000000000000E9
:101FF80000000000000000000000000000000000D9
:1020080000000000000000003804002032547698D8
:04000005080000BD32
:00000001FF
